TSC 6800 MICRO BASIC PLUS VERSION 2.1 (4K)
COPYRIGHT (C) 1977 BY
TECHNICAL SYSTEMS CONSULTANTS, INC.
BOX 2574; W.LAFAYETTE, IN 47906

S11301007E01A67E01B07EE1D1BDE1AC7E04591E24
S1130110FF50524904A6494E50079849462008B258
S11301204C45540772464F5209764E4558099D472F
S11301304F540781474F53092B4F4E2008765245A1
S11301405409535245410826444154081752455313
S1130150086C44494D067145585407014D4F4EE013
S1130160E3454E4401B052454D070452554E075FD6
S11301704C495303EC53435201A600524E440AC067
S11301804142530ABC53474E0AB400CE0100DF0A71
S1130190CE000C2008FE010FDF0AFE0D4D4FA70014
S11301A0089C0A26F9398DE3CE0D4FFF0D4D8DE5E0
S11301B0CE0103FFA0488EA07FCE0068DF0A8DD059
S11301C0CE0D4DFFA002EE00FFA004DF08CE0068B4
S11301D0BD02EA8621BD044CBD02D027D3A700810D
S11301E00D2708088C00B026EF20C5CE0068BD039B
S11301F031DF31BD037B4D261ADE04A600810D26B6
S113020008D62827AB9712200ABD07452705861074
S11302107E0461963E9026973ED6282606BD02EAC5
S11302207E0741FE010FDF37DE31DF04BD02A5DFAB
S1130230225D26205CA60008810D26F8F7024C8674
S1130240FF508D46DE22BC0D4D2707A600A70008EF
S113025020F4DE229612262FFE0D4DD63ECB02F759
S1130260026C8D269C22270709A600A70020F50909
S1130270BD06680808DF22DE04A60008DF04DE22CB
S113028008A700810D26EE7E01B0FB0D4EB90D4D81
S1130290D73A9739BD0CB32407F70D4EB70D4D3936
S11302A086907E04619664D663CE0D4FBC0D4D26B8
S11302B0025C39E100220A26F8A101220426F25F39
S11302C0398D030820E636860D08A10026FB323955
S11302D0BD01098108260B8C0068270D097A003EB0
S11302E020EE811827037C003E39DF22CE0301A6CD
S11302F00081042706BD044C0820F4DE227F001D83
S1130300390D0A0000000004810D2702813A39BD2D
S11303100B514F976297639764398DF69728972707
S11303209726BD0368812B2707812D260473002798
S113033008BD0CE3C103270596277E0BEA0897281E
S1130340840FC6047800647900637900625A26F445
S11303509B6497647C002620D8DE04A600812027B5
S1130360070820F78DB40908A600812027F939DE93
S113037004BD0CE3C10226F00820F6BD0368DF04C7
S1130380DF22CE0111C605A1002612DF0ADE2208F3
S1130390A600DF22DE0A085AC10226EB39085A26D3
S11303A0FCA60027F7DF0ADE04DF22A600DE0A200F
S11303B0D4CE0062C6020CA6002A19862DBD044CB8
S11303C07C001D200FA60085F025022707BD0444EC
S11303D07C001D0DA600C5FF2706850F25022707F3
S11303E0BD04487C001D0D085A2ADA39BD036F810B
S11303F00D2725BD031ADF04BD02A5DF22BD036F4F
S1130400810D26057C001B200B08BD0368BD031A63
S11304109664971BDE222003CE0D4FBC0D4D272181
S1130420BD02EAC6010C8D9DA600810D27058D1C19
S11304300820F508961B27E38B99192704971B209E
S1130440DA7E01B044444444840F8B30BD010C7EF9
S1130450010636B680042A023239B680042AFB86A5
S11304609936BD02EACE0498BD02EF3236BD04448B
S113047032BD0448D61926037E01B0CE04A1BD02C4
S1130480EFDE04098C0D4F2707A600810D26F40822
S1130490C6010CBD03C520E0074552524F5220232C
S11304A0042041542004BD036FBD030826037E05C8
S11304B03C7F0012812C2620D61D8620BD044C5C76
S11304C0C50726F6C1472204D71D2003BD02EA7CD6
S11304D0001208BD036820D1813B27F38122260541
S11304E0088D6420497F001781542606971786419A
S11304F020068153262E8650A1012628BD0371BDF6
S11305000A26BD061ED6642725961727075AD11D2D
S1130510231C2002DB1D8620BD044C7C001DD11D44
S113052026F4200ABD0A26DF22BD03B1DE22BD0C5B
S1130530DE5A26037E04A986317E04617D001226DC
S113054003BD02EA7E0704A6008122270EBD03082C
S1130550270DBD044C7C001D0820EC087E03688632
S1130560327E0461DF04BD0CE5C102262F7F00202A
S113057016481B80139721DE2039A600087F001837
S11305808DE25FA600810A2706810B2701395CA64C
S11305900136A6023637BD036F33812826715D27E5
S11305A01308BD0A29966436BD0B62BD036F812C06
S11305B0265D20024F364C971808BD0A2908DF042F
S11305C0329714329721329720DE20A6009716081E
S11305D008DF20BD030F9614DE2009A10022309706
S11305E064BD030F9616915E270223238B0119978E
S11305F064BD0BF4BD0BCABD06149620D621DB6482
S113060099639720D721BD0B62DE207F00183986BD
S1130610147E0461BD030F86039764BD0BF49664D6
S1130620369663365FD763D76496628D1232368D01
S11306300A328D0B32368D0332201D444444448DDE
S113064017D6634859373648594859976432D7639F
S11306508D08329B63976339840F9B6497642403EA
S11306607C0063399662A7009663A7019664A7028B
S113067039DE06DF37BD036FBD0368BD0564DF0ADD
S1130680BD036F8128262008BD0364812926054FF8
S11306905F362018812C260F9664270B3608BD037D
S11306A064C6018129270586407E0461966427F784
S11306B036DF04DE0A860A1BA7009608A7019609FE
S11306C0A702DE0832A7000833E70008DF208B0109
S11306D01936178B011916BD0312D764BD030F32E7
S11306E09764BD0BF4BD05F7BD0CB123037E02A0D6
S11306F0DF08DE0408BD0368BD03082707087E067B
S113070078BD1F004F9712971C9718972C9619269F
S1130710037E01B0DE04860DC63AA1002707E1007E
S1130720270A0820F508BC0D4D27E60808BD010C72
S1130730BD037B4D260BDE048D0B270586107E043E
S113074061EE006E00BD0CE3C102261208BD036811
S1130750813D270481282606CE0123971C5F39BDDD
S1130760018BBD0195FE010FDF06CE0D4F7C0019F4
S113077020B4DE04961C2603BD0359BD09657E071B
S113078004BD036FBD0A26BD02A55D270586167E3E
S113079004615CD7197E0726BD036F7F0013BD0378
S11307A0688122260608BD0547203BBD057CDF3352
S11307B0CE006896132607863F9713BD044CBD01EF
S11307C009811826057F001320E6A70008812C273D
S11307D009810D26E99712BD02EACE0068BD031A0D
S11307E0DE338D2DDF04812C260708961227AF20D7
S11307F0AABD03082613961227037E0704BD010928
S1130800810D26F9BD02EA20F186457E0461BD050D
S11308107CBD06647E036F96192749BD036F971A42
S1130820DF0CDF0E203E9619273A961A2739BD03AE
S113083059BD0368BD057CDF33DE04DF35DE0EBD44
S11308400A26A600BD03082604DE0C200108DF0EDC
S1130850DE35DF04DE338DB9812C26030820D2BDBA
S1130860030826037E070486517E0461DF22DE0C22
S1130870DF0EDE2220EEBD0359BD0A269664840FE6
S1130880367F00120808A600815427029712BD0380
S11308905BDF22324A2711E60008C12C2604DF223E
S11308A020F2C10D26F1DE22D61227037E09327E04
S11308B00784BD036FBD0A26A6008D63265C36A699
S11308C0018D5C322604E6011B080836BD0A263277
S11308D0840F80092B444848B708E2BD0BC4BD0C03
S11308E0BE20FE2F1820302614202C2C1020282D5A
S11308F00C2024270820202E04201C201DDE04A602
S1130900008154260FBD036FDF04BD0CE5C103262F
S1130910037E07847E07307E070486627E0461813D
S11309203B2306813E22025F395C39D61927E8BD94
S1130930036F7C001BBD0A2609BD02C608A600364B
S1130940A601369F37CEA023BD0CB123037E02A09F
S11309507E078786737A001B2A037E04613233BDC7
S113096002A97E078ABD057ADF33BD036F08BD0A7D
S113097026DE337E0664BD0359368DE9DE08DF3793
S1130980DE0632A700960509A700960409A7000908
S1130990BD0CB122037E02A0DF067E0704BD03590D
S11309A0DF1EDE06BC010F2604DE042074080808DE
S11309B0A10026F0090909DF0608EE00DF04BD05E1
S11309C07CDF33BD036FBD0A26BD0B51DE33BD0B87
S11309D044DE04A60081532708BD030F4C9764200E
S11309E00ABD0371BD0A269662971CBD0BCACE00D0
S11309F010BD0664BD0BC4BD0CBED61C2B05062C55
S1130A00122003062F0DDE06080808DF06DE1EDFAF
S1130A1004200BCE0010BD0B44DE33BD06647E07FC
S1130A200486817E04617F002C962C972D8D044DC5
S1130A3026F1399FFEBD0CDEDF04C10126048621A8
S1130A40204A54C1032603BD030FDE04BD0CDEDFC0
S1130A5004C1042302C60558F70A5C20FE202B209B
S1130A601B2038202C2004360820CA3009D6189CB4
S1130A70FE2706325F812827785D270E4FD62C5A31
S1130A80D12D260630099CFE270486209EFEDE0416
S1130A9039BD0B51DE04BD031A2059A601BD0CE576
S1130AA0C1022628A600DF22CE017BBD03854D2787
S1130AB0CB7E0741863F36DE227E0A35864020F60D
S1130AC0BD030FBD0D2A9764DE222028D6FE37D63B
S1130AD0FF37D62D37D61837BD057A33D71833D715
S1130AE02D33D7FF33D7FEBD0B51DE20BD0B442081
S1130AF005DE0408DF0430099CFE273732368128DE
S1130B002731BD0CE53754962C4AC1042704912D96
S1130B10272181092304862420163233800648B70E
S1130B200B26CE0B36EE00AD00BD0CBE28C88623C6
S1130B307E0A8C7E0A4A0BCA0BC40C820BBC0BF4D3
S1130B400C150C94A6009762A6019763A6029764FD
S1130B5039CE003BE603E700088C006226F67C00F1
S1130B602C39CE0064E600E703098C003A26F67AB5
S1130B70002C390CCE0064A600A90319A700098C27
S1130B80006126F337C60285F026015FDA30D730DC
S1130B901733398D030D20DCCE00678699A000A79A
S1130BA000098C006426F4840FA701397F00309675
S1130BB06516C40FD765972F9862972ED662C40F17
S1130BC0D7624D39966288F097628D588DDE2A0A75
S1130BD08DC106280973002F200B8D97200A8D44A0
S1130BE0BD030F8DAE7F0030962F84F0C60FD46204
S1130BF01B9762398D2E8DB4BD030FC605965F27F2
S1130C0008BD0B737A005F26F85A273D8D4A966219
S1130C10BD0B8420E88D0DCE0065BD0CC126088671
S1130C20227E0A8C7E0B62BD0BACBD0B518D296FED
S1130C30026F03C6058D21BD0B988D2E85F02613FA
S1130C40BD0B980C8D255A26EC962E8D9DCE005EFC
S1130C507E0B657C006420E28604CE00640C69008F
S1130C60098C005E26F84A26F1390DCE0061965FA4
S1130C70840F975FA600A90619A700098C005E26B9
S1130C80F3398D3A270BD6628D077C0064177E0BEF
S1130C90EA7E03128D8E5FD730966727EBBD0B512A
S1130CA08D828B9919271636BD0BAFBD0BF83220F8
S1130CB0F1DF39963991372604D63AD13839CE0046
S1130CC0625F6D02260E6D01260AA600840F2604BB
S1130CD0A700C604A6004684081B9A300639BD0343
S1130CE0682002A600C601810D27175A3680282BDA
S1130CF0108118230E8132230681362604C60ACBBE
S1130D00023239DF24CE0D11B70D0CE600DE2420AB
S1130D10F005040A060107000B030303030303039E
S1130D2003030301010101010809C608CE0000A65E
S1130D3003484848A80348486900690169026903EF
S1100D405A26ECA600819F22E18B00193990
S1041F0039A3
S105A048010011
S9030000FC
