S00B00005245533253204644DB
S11EF0007EF01A7EF0237EE8007EE8037EE8067EE80C7EE8097EE80FF8008EC1
S11EF01B1FF0BDF0527E01008E1FF0BDF0527E0103BDF0987EF015BDF098BD61
S11EF036F03B7EF30FDE0FDF04960E970696030C46464697077F0008397EF2BA
S11EF051F5BDF06FCE0083DF047F00067C00067F00077F0008CE0000DF17BDC6
S11EF06CF09839BDF1FF6F016F036F076F0086FFA702A7068604A7018604A712
S11EF08707862CA7038680A702860CDE19BDF26839BDF12C252B815326F77FE5
S11EF0A20013BDF12C2517813027EB81312718813927E3811B2607BDF12C818A
S11EF0BD142708863FBDF0097EF015398D2C4A97148D2797118D23D6119B1866
S11EF0D8D917D71197127D0014270B8D12DE11A70008DF1120F08D077C001375
S11EF0F326CB20A18D3325C58D1B25C148484848368D2625B88D0E25B4331B6C
S11EF10E169B1397137A001417398030250F8BE9250B8B062A048B0725038B0A
S11EF1290A0C39BDF1352503847F0C397D00082654CE0006BDF218DE0409267A
S11EF144057F00080D39DF049607BDF22CBDF27786809708860597159606BD24
S11EF15FF2508602BDF268BDF1FFA600DE1984802705BDF25F20C4BDF1FFA6F1
S11EF17A00DE198408270DBDF25F7A001526D886017EF284863C8D6DA70386BD
S11EF19540A702A60036862CA7038640A7026F02DE197A0008320C398D50A7E6
S11EF1B0068630A702DE197C000D960D81802701397F000D960CBDF22CBDF29E
S11EF1CB7786059715960BBDF2508604BDF2688606BDF2688D1EA600DE1984C7
S11EF1E6082712BDF25F7A001526E4860EBDF268BDF20520C9BDF20539DF19F5
S11EF201FEF01839CE000BBDF218DE0909DF092B013986027EF2846C01A60142
S11EF21C841F811B270139A60184C1A7016C003936841FCEF2BADF155F9B16A3
S11EF237D9159716D715DE1533C4C0A6001B8DB8A7068620A702DE19398DAD1B
S11EF252A7068610A702DE1986087EF268860A8D9CA702DE19398D95E600A713
S11EF26D02A6012AFCE600DE19398D86A600DE19842026013986038A303696DA
S11EF2880081F03226037EF30FBDF0097EF015CE00008601A50027056A008BC7
S11EF2A330396D00270FBDF03BCE00000C6600A6006F0020EA7E0043010A131A
S11EF2BE020B14030C15040D16050E17060F1807101908111A0912860DBDF2AE
S11EF2D9EB860ABDF2EBA6008104270FBDF2EB0820F4DF1137BDF00FDE1133E5
S11EF2F43981302B1181392F0A81412B0981462E058007840F397DF30E39FFE9
S10FF30F36863FB7E40132FEE0FE6E00DB
S9030000FC

