 S10601007E0189F0
 S11E01898E0417CE0383BDEEECCE0018DF047F0006860397077F0008C680CEB3
 S11E01A40103FF018337BDF1352520FE0183A70008335A26EDCE0103A6058187
 S11E01BFFF2716C60B085A26FC8C017C26EF20CFCE0377BDEEEC7EF000FF0136
 S11E01DA83864CE606D70B109709A607970CCE00195F9B09C9000926F98B1865
 S11E01F5C900900CC20026034D27CFD709970AD70F9710CE03DEBDEEECBDED5A
 S11E02105C812C26F3FFE043BDED5CFFE045810D26E6CE039FBDEEECCEE068AA
 S11E022BC605BDE80081212DEE81612D1D20E8BDE800810D260A8620A700089B
 S11E02465A271220F681202D0481612D028620A700085A26DFC60BCE03C6BD34
 S11E026102EDCEE068BD02CE8CE06E26F85337308D5B33FEE043FFE050B6E039
 S11E027C46B0E051F6E045F2E05026048118250286178B04B7E0528003B7E0E6
 S11E02974FCE03A6BD02ED5FCEE0528D2ACEE0508D258D23FEE0508D1E7AE02D
 S11E02B24F26F9FFE0505337308D1133FEE05009BCE04526B3CE03AF8D2120C6
 S11E02CD35FF0185EB0037A600BD03CFBDF1ADFE0185A600BD03D3BDF1ADFE90
 S11E02E80185083339A600810427F9FF0185BDF1ADFE01850820EE4FBDF1AD8E
 S11E0303D60D26F8D60F9610900AD2098B01C900FE0183E708A7096F05BF0130
 S11E031E878EE067C60532A700085A26F9BE0187DE0409DF09960B367F000BC5
 S11E0339960C369607970CFE0183C60B085A26FC8C017C26058D12CE0103868B
 S11E0354FFA70532A70732A7068D037EF000CE0103A600FF0183BDF1ADFE01CD
 S11E036F83088C018326EF390D0A4E4F20524F4F4D0D0A040D0A4D454D4F52C3
 S11E038A592044554D50204F4E204449534B455454450D0A040D0A4844523D1E
 S11E03A5040D0A000000005331040D0A00000000533930333030303046430D3A
 S11E03C00A000000000453303042303030300444444444840F8B30813923021A
 S11E03DB8B07390D0A0000000042454720414444522C454E44204144445220BA
 S10603F63A2004A2
 S105E0FE018992
 S9030000FC
