S00B00002020202020202020F4
S11EE8007EE83B7EE8967EE81E7EE87C7EE9587EE8D47FE04F7FE0507FE051F0
S11EE81B7EE9B37DE04F261337FFE052BDEBDA33FEE0528601B7E04FB7E00C82
S11EE836BDE95B0C397DE04F271137FFE052BDEBF033FEE0527FE04F7FE00C1D
S11EE851B6E00C36B6E40184088808B7E00CBDE95BB7E01C32B7E00CB6E01C3B
S11EE86C847F81612D06817B2C028020B7E01D397DE05026123637FFE052BD7E
S11EE887EBF68601B7E050FEE05233327EE9583637FFE0527DE0502716C6146D
S11EE8A2861ABDE9585A26F8BDEEF9BDEBFC7FE050FEE052BDEAB3260AA600EA
S11EE8BD8401880147462004A6008480B7E4003332FEE0107EE9587FE00C8635
S11EE8D880B7E4007EE9B3BEE0493BFEE0006E008D406E00BDEBDA8D6A8153F6
S11EE8F326FA8D6481392729813126F07FE00F8D348002B7E04E8D1F8D2B7AAF
S11EE90EE04E2709A700A10026080820F07CE00F27CF863F8D34BDEBF07EEA17
S11EE929358D0CB7E00D8D07B7E00EFEE00D398D5348484848168D4C1B16FBE5
S11EE944E00FF7E00F3944444444840F8B30813923028B077EEAB17EEA8D8D3C
S11EE95FF808A600810426F7397EEA2D8DBDCEEA808DEFCEE00D8D34FEE00D1E
S11EE97A8D318D318DDB812027FA810D27E0815E202C018DCC80302B4C81090D
S11EE9952F0A81112B4481162E40800739A6008DA4A6000820A38DF58DF38694
S11EE9B02020A58EE047202C26070909FFE00D20ACFFE00D2002206D813025FA
S11EE9CBA18146229D8DBDBDE93A09A700A10027917EE920BEE0082049BFE09E
S11EE9E60886FFBDEBA8CE8004BDEB64A600A1022002201926398603A700861E
S11EEA0111A700202F01BFE008306D0626026A056A06CEEA80BDE961FEE00878
S11EEA1C088D8E8D8C8D8A8D868D84CEE008BDE9ABFEE0128CEA0627198EE043
S11EEA3747CE8004FFE00A7FE00C8D702703BDEB5DBDEBFCBDEBF0CEEA7FBD77
S11EEA52E9618D37CEEC7AA1002607BDE9AFEE016E000808088CEC9B26ED2085
S11EEA6DBFFEE0126E005339040D0A15000000533104130D0A150000002404C2
S11EEA88FEE0066E00203FBDE92AFFE004BDE92ABDE93816A600FFE00D11277D
S11EEAA3022020CEEA80BDE961CEE00D200F203AFFE010FEE00A37E601E103B6
S11EEABE3339BDE9ABFEE00DBCE00427A10820CE8D06847F39313131378DDA33
S11EEAD926288615A700A6004724FBA601F6E00C27072011378DC3262EC611E8
S11EEAF4E700E600575724FAA70133FEE01039A6002BFC8D3AC604E702588D3C
S11EEB0F2A0D6900465A26F78D21F6E00C271320DE8D23C60A6A008D168D1098
S11EEB2AA7000D465A26F7E602582AC88D0220C46D022AFC6C026A02396F029D
S11EEB458DF720F18D83167FE00BFEE00A8D108D07CEEC92177EEA598634A7EE
S11EEB6003A702396C008607A7016C00A70239CEFFFF098C801426FA39CEEABC
S11EEB7B06BCE012271A088D38BDE92AFFE01EA600B7E020863FA700CEEA0665
S11EEB968D247EEA4EFEE01EB6E020A700CEEA0720DAB7E048CE7FFFFFE014C9
S11EEBB1FEE0128CEA062706CEEA07FFE012398D5D200FCEA049FFE004098D7A
S11EEBCC55CEEA73BDE9618D278D987EEA357FE00C7CE00C8611C6208D1ABD79
S11EEBE7EAB92704863CA703398613C610200A8612C60420048614C608BDE96F
S11EEC0258BDEAB627168602CA018D0C8D088602C601E7008D028606A701E7A0
S11EEC1D0039FEE002FFE04B8DCFB6E005B0E04CF6E004F2E04B2604811025EB
S11EEC3802860F8B04B7E04E8003B7E04DCEEA76BDE9615FCEE04E8D24CEE05C
S11EEC534B8D1F8D1DFEE04B8D187AE04D26F9FFE04B5337308D0B33FEE04B95
S11EEC6E09BCE00426B339EB007EE9A247E8DF5AE9B34DE96B46EA8F52EA1325
S11EEC894AE8E842EB794FEB4950EBC04CE8EC45EBC437FFE054CE801C7DE0E9
S11EECA451260BC6FFE700C63FE7017CE051A700C637E701C63FE7016D012A78
S116ECBFFCBDE95833FEE054398DD108A600810426F739BF
S11EED5C7FE01E7FE01FBDED8B26048D0720F7FEE01E17398D0D8D0B8D098DF2
S11EED7707BBE01FB7E01F3978E01E78E01F24037CE01E39BDE95B1680302B14
S117ED921081092F0A81112B0881162E048007C600C10039C1
S10DEEEA8D0D7EE9618D1E7EECCBD8
S110EEF9FFEF06CEEF08BDE961FEEF06391C
S117EF080D0A0000000004FFEF06CEEF08BDECCBFEEF06397D
S10BFFF8E8E3EA6EEA88E8126E
S9030000FC

