
S123C4007EC403BDC0278D0220FC8D19BDC363CEA080BDC7A7270A8D3925072704AD0025C2
S123C42001397EC01EBDC363863EBDE1D1CEA0805FBDE1AC810D2716811827E9810826068C
S123C4405A2BE20920EBA700085CC12026E34FA700398130230E8133220AE601C12F260476
S123C4600808200286018403444646B7A0ACFFA0A0A601270481202610A600CEC7CEA10013
S123C48027320808086D0026F5FEA0A08130250C81332208BDC640BDC00320088D1F251352
S123C4A0EE00DF01CEFFFFDF16BDC01B2505DE0D8CFFFF39EE010C39BDC792276DBDC68F89
S123C4C02540CEA0B3FFA0A2FFA0A6FEA0A0C606A6002705812026014F08FFA0A4FEA0A2CE
S123C4E0A10026136D00271C08FFA0A2FEA0A45A26DEFEA0A20C39CB0A8D0D8CA2B326C505
S123C50086060D398D020C3937085A26FC3339BDC68F2512CEA0B36D00270DC6108DE98C67
S123C520A2A326F386070D390C3986080D39860A0D3986010D39BDC79227EFBDC48C2303AB
S123C540FFA04839CE0000FFA0A8BDC79227DBBDC61D25DABDC4BD2531EE00DF05FEA0A641
S123C560A600814027CC8CA293273A6D102736EE16FFA0A8BDC610BDC0245D272ABDC02196
S123C580DE05BCA0A827755A20F081062670BDC514256BFFA0A6FFA0A2FEA0A0A60081403C
S123C5A02588BDC73D8D69FEA0B1DF1A7F000AFEA0A69614A70A9615A70B961EA70C961F2A
S123C5C0A70D961AA70E961BA70FEE06DF01BDC018252BFEA0A69601A7089602A709FEA0AE
S123C5E0A82612DE01DF05BDC021FEA0A69605A7169606A717BDC694BDC0183986090D3946
S123C600BDC50F25F9A606812224F16C067EC5F5FEA0ADDF14DF08FEA0AFDF1E398D1B25E4
S123C62015FFA0AD8D11250EFFA0AF8D0A2507260109FFA0B10C39FEA0A4BDC79EFFA0A447
S123C6404FB7A0AAB7A0AB20168D21251BC60478A0AB79A0AA5A26F7BBA0ABB7A0AB08A6E3
S123C660002704812026E20CFEA0AA3980302D1281090A230B8007810A2507810F22030BA6
S123C6800C390D39BDC79227418DB525F56E008D117EC01BCEA0B3DF14CEA2B2DF1E86D043
S123C6A0970AB6A0AC97004F97019702CEFFFFDF1ACEA0B3DF1639CEA0B36F00088CA2B32F
S123C6C026F88601B7A0B97EC5F586080D398DBF25FACEC7B0BDE07EBDC363CEA0B36D0653
S123C6E02724C606A60026028620BDE1D1085A26F38D14BDE0CC8D24FFA0A6BDC363FEA040
S123C700A68CA2B326D8398D00FFA0A2BDE0CCEE00DF01BDC324FEA0A20808398D028D0009
S123C720BDE0C839BDC4B825A3FEA0A6FFA0A2BDC7922796814025928D037EC5F5C606A64C
S123C740002708812026034F200108FFA0A4FEA0A2A70008FFA0A2FEA0A45A26E239BDC493
S123C760B82539FEA0A6A600814026037EC532A6102608A606A716A607A7178CA2A327079F
S123C780A610A7000820F46F00088CA2B326F87EC5F5FEA0A08D072703FFA0A03908A6004C
S123C7A0270D812026F708A6002704812027F73946494C453A2020465354204C53542042B6
S123C7C045474120454E44412053545254044CC53653C54449C6B746C6CE44C75E58E0E318
S110C7E041C6004AC68452C7244DC3AC00B4
S9030000FC
