SWTPC RACE FOR GT-61 GRAPHICS
VER. 1.0 1977
SOUTHWEST TECHNICAL PROD. CORP.

S1130000200831AB010004BC01004F7F00537F0086
S113001054DE04A600BB0054B7005424037C0053F0
S11300209C0627030820ECFE00539C022709CE00FF
S11300303EBDE07E7EE0E3DE08FFA0486E00000DDA
S113004000000000000A00154C4F41442045525264
S10600504F520404
S11301007E03B6800C05E40123011F5C7E017200AE
S113011000583400891F5C020000007FB60113817F
S11301204027128D14868081E027058D0C4C20F722
S11301307C011320E77F011339FF0105FE0103A7AA
S113014000C637E701E600C63FE701FE010539FFB7
S113015001054FCE0000088C03FF26FA4CB10117AD
S113016026F1FE010539FF0105CE0111A6010C4956
S11301700C49AB00E6010C59490C59490CEB01A997
S1130180000CCB198936A700E701FE010539B60139
S113019009B1011B24037C0109FE0103A603848029
S11301A027F7A60216848026F0C47FC120273925AC
S11301B01DFB011AF7011AF1011B252CF6010B5C3A
S11301C0C15C2302C65CF7010B7F011A201A86402A
S11301D010BB011AB7011AB1011B250CB6010B277C
S11301E0014AB7010B7F011AA603848027FAA602ED
S11301F0847F1681202739251DBB0119B70119B148
S1130200011B252CB6010A4C813C2302863CB70114
S11302100A7F0119201A864010BB0119B70119B1D0
S1130220011B250CB6010A27014AB7010A7F0119EF
S1130230B6010AB7010D8B03B7010CF6010BCB0312
S1130240F7010EBD0284BD0256B6010AB70115B608
S1130250010BB7011639CE04B4A60081FF275381E0
S113026080240BBB010A817F2314867F2010BB01ED
S11302700B818026037E038981DF230286DFBD0193
S1130280390820D5CE04B4A60081FF272581802417
S113029012BB0115804024034F2011813F230D869A
S11302A03F2009BB011681DF230286DFBD01390827
S11302B020D539CE04BDA60081FF270AE601BD0280
S11302C0CC08080820F0CE04BD7E0468F70108F6C7
S11302D00109E1022205F601082017BD0139B60122
S11302E0088B80BD0139A6004C81402603BD02F570
S11302F0A7007E0347A600813F2406BD0429863F4C
S113030039BD04294F39CE05BDA60081FF270C0154
S113031001E601BD032108080820EECE05BD7E04D8
S113032068F70108F60109E1022205F60108201721
S1130330BD0139B601088B80BD0139A6004A810090
S11303402603BD02F5A700A600E601F1010E221264
S1130350F1010B250DB1010D2508B1010C22037E1D
S11303600363397F01077C010F86E0BD0139BD01BC
S11303704F86E1BD0139BD014F7C0107B6010781FC
S11303801026E68EA0427E03D10F7C01108EA0427F
S11303907E03D1BD011CBD0256CE04BDBD0468CE92
S11303A005BDBD0468BD02B3BD0306BD018EBD0419
S11303B080BD019920EF0F8EA0427F010F7F0110B5
S11303C0FE01035FE70253E700C63DE703C63FE7CC
S11303D0018602B70117867FB7011B4FB70119B712
S11303E0011AB70109B70113861FC65CB7010AB722
S11303F00115F7010BF70116BD0401BD043E7E0390
S113040093CE04BDBD0166840F810922028609B71B
S11304100118BD04296F00B6011827080808087AD6
S1130420011820EE86FFA70339BD0166847F816031
S11304302502845FA701BD0166841FA70239CE058A
S1130440BDBD0166840F810922028609B70118BD6A
S11304500429863FA700B6011827080808087A016E
S11304601820EC86FFA70339A60081FF27118B40D3
S1130470BD0139A6018B80BD013908080820E9397E
S11304808640BD0139B6010F270E81322723368BF2
S113049080BD0139324A20F08642BD0139B60110CF
S11304A0270E8132270B368B80BD0139324A20F06A
S11004B0397E01004081418081824281FF3C
S105A048010011
S9030000FC
