S00B00004D494E4942554749A0
S106022D7E032D1C
S10602507EFE002B
S106025A7EFEAE73
S10602687E03000E
S11E030036BD030D2405861806323931398030250F8BE9250B8B062A048B0760
S11E031B25038B0A0C39CE032ABD032D7E0AA80D0A04FF0340A60081042601FA
S10D033639BDFEAEFE03400820EDC1
S11E03427FA00CBDFE0036860DBDFEAE860ABDFEAE32398C01BD27037E15FD1C
S107035D7E16910172
S10604007E032153
S10606C379A00C0B
S10606977E06A137
S10606DA7E06E6AF
S10406B73905
S104070E01E5
S106072D312E3036
S1060AA8CE1FFF5B
S1060ABCBD034231
S1050ADB010113
S1060AF57EFED6A8
S1040F3F2786
S106168C7E035581
S9030000FC

