S00B00004558425547494F20C1
S106022D7E032D1C
S10602507EF01227
S106025A7EF01817
S10602687E03000E
S11E030036BD030D2405861806323931398030250F8BE9250B8B062A048B0760
S11E031B25038B0A0C39CE032ABD032D7E0AA80D0A04FF0340A60081042601FA
S10D033639BDF018FE03400820ED65
S11E03427FFF53BDF01236860DBDF018860ABDF01832398C01BD27037E15FDBA
S107035D7E16910172
S10604007E032153
S10606C379FF5365
S10606977E06A137
S10606DA7E06E6AF
S10406B73905
S104070E01E5
S106072D312E3036
S1060AA8CE1FFF5B
S1060ABCBD034231
S1050ADB010113
S1060AF57EF56423
S1040F3F2786
S106168C7E035581
S9030000FC

