S00600004844521B
S10900207E01007E028453
S11E010001BDFC068E0058BD018A8621BD08AFBD01A280412BEA81182A1E9729
S11E011B5D9B5D9B5D5FCE0142DF599B5AD959D759975ADE597F00647C00648E
S11E01366E00BD018A863FBD08AF20BE7E06B07E01387E079A7E02D57E03B944
S11E01517E01387E01387E06957E047A7E01387E01387E04B77EFEFC7E043932
S11E016C7E01387E039F7E01387E02C67E055B7E07467E01387E01387E0138D2
S11E01877E059B860DBD08AF860A7E08AFC664D75D4FBD08B57A005D26F7391B
S11E01A2BD08B2847F36BD08AF3239BDFFDFBDFFD5B6F0812AFBBDFFDF39CE95
S11E01BD005E6F006F01BD01A2975D803025298BE925258B062A048B07251D43
S11E01D88B0A0C251836E600A6014859485948594859A70132AA01E700A701CF
S11E01F320CE965DBD020A24047E0138397A006427FA08087E01BF8120270A0C
S11E020E812C2706810D27020D390C39975D44444444BD022A965D840F7E02C2
S11E02292A810A2B028B078B307E08AFC608975D9B5D5A26FB39CE005EA60111
S11E024484072739860897057F00047F00067F0008A60184304848E601C4075A
S11E025FCB0D1B9707BDFC0997057F0004960784C097077F0008965F8407BDCB
S11E027A02358B059706397E01380F8E00589601840726037E01007D000D27A1
S11E0295064FBDFC0C20F586EB900A3686EB970A7F00097F000B7F000D960292
S11E02B00C4646469A018B0E970C32BDFC0C7D000D27CB4F20F5BD01BCBD016B
S11E02CB8ABD023F8E1E007EFC15BD01A2976781542707814327397E0138BD58
S11E02E601BCBD018ABD023FBD0194BD0194BDFC092509810D2715BD08B520FE
S11E0301F2861ABD08B5860DBD08B5BD01947E0100BD08B54FBD08B520D9BDFA
S11E031C01BCBD018ABD023F7F0067BD033A7D00672605BD035F20F3BD035F7F
S11E03377E0100CE1000DF59BDFC09250CDE59A70008DF59810D26F039861A84
S11E0352DE59A70008860DA7007C0067390D79FF628610BDF9CF8630BDF9CF13
S11E036D86FFBDF9CF8612BDF9CFCE1000A600BD08AFA60008810D26F4861462
S11E0388BDF9CF8610BDF9CF8639BDF9CF7FFF62CE5DC00926FD39BD01BCBD0B
S11E03A3018ABD023FBDFC092509847F27F7BD08B820F27E01007C0064BD01F5
S11E03BEBCBD018A96618407276E970196618430444444449702965F8430442C
S11E03D94444449703965F84072747BD023F9606970E960597107F000F864ECE
S11E03F497057F0004860497067F00077F00089601BD02358B05970B86EA97D3
S11E040F0A7F00097F000D96020C4646464C970C965F916127118E1E007EFC06
S11E042A248601970E97107F000F20BC7E0138BD01BC965F840727358B07D6DD
S11E04455FC43058581B970C86EA970A7F00097F000D7F000BBD01A2810D2713
S11E046005BDFC0C20F4860A975D8620BDFC0C7A005D26F67E02BE7E0138BD0B
S11E047B052186079766BD053D8664975D8620BDFC0C7A005D26F6BD054F7CEA
S11E049600657A006626E486079766BD053D8601BDFC0CBD054F7C00657A00B7
S11E04B16626ED7E0100BD052186019766BD050E9666BD021A8620BD08AF8688
S11E04CC20BD08AF860A975DBDFC09BD08AF7A005D26F58620BD08AF8620BD54
S11E04E708AF9665168B079765BD050ED765BDFC094ABD021ABD018A7C006586
S11E05027C00669666810826B37E0100860897057F00047F00067F0008966567
S11E051D4A970739BD01BC965F84FC2610965F84030C4646468B089765BD01D2
S11E05388A397E01389665970C86EA970A7F00097F000B7F000D397D000D26F4
S11E055301394FBDFC0C20F4BD01A2976781502706815427028143262CBD01F9
S11E056EBCBD018A965F840727209701BD02358B05970B86EA970A7F000996B6
S11E05895F8430444444449702BD05F97E02847E0138BD01A2976781502706C5
S11E05A481542702814326ECBD01BCBD018A7D005F270E8601915F27264C91F0
S11E05BF5F272C7E0138864E970A7F00098601970B7F0002BD05F98653BDFCC0
S11E05DA0C861BBDFC0C7E02BE864E970A7F0009860420E086EA970A7F000932
S11E05F5860720D596020C4646464C970C7F000D9667815027797DFF022A0C52
S11E06108610BDF9CF8637BDF9CF200DB6FCFD8455B7FCF48611BDF9CFCE1018
S11E062B00DF59CEFFFFB6FCF44725090926F7861ADE592010DE59B6FCF58402
S11E06467F810D2705A7000820DCA7000886FFA700B6FCFD8435B7FCF486132E
S11E0661BDF9CFB6FCF5B6FCF5CE1000DF59DE59A60008DF5981FF2791811AA1
S11E067C2705BDFC0C20EC39BDEB04BD08BB25F7811A27F3BDFC0C20F2BD0593
S11E069721966584C04CBDFFDA8620BDFFD5860CBD01AD7E01007E01387C001C
S11E06B2647C0064BD01BCBD018A9661840727EB9701966184304444444497A5
S11E06CD02965F8430444444449703965F84072765966380052A5F966380022B
S11E06E82B599663484C9700BD023F9606970E960597107F000F966381032699
S11E0703037F000186EA97057F0004860797067F00077F000896012604860C3B
S11E071E2005BD02358B05970B86EA970A7F00097F000D96020C4646464C97F3
S11E07390C965F916127037EFC1B7E01387C0064BD01BC965F97639661975F02
S11E0754BD023F86EB9005970A7F00099606970B9607970C7F000DD605CE00A6
S11E076F0BBDFDEF5A26F79663975FBD023F966184079701960C84C00C4949B5
S11E078A499702BDFC092505BDFC0C20F67E0023860197077F00068641970CF2
S11E07A57F000B9607BDFE03BDFE4D9606BDFE2BCE1000DF5B9607BDFE03DE75
S11E07C05BBD0822DF5BCE0006BDFDEF9607810126E88605975DCE1000DF5B5D
S11E07DB960CBDFE03BDFE4D960BBDFE2B960CBDFE03DE5BBD0875DF5BCE0035
S11E07F60BBDFDEF960C814126E87A000BBD089127118641970CBDFE387A00D4
S11E08115D26C286017EFE57960B814D26897E0100860597658602BD01ADBD55
S11E082CFFD08408270BBDFE387A006526EC0101018604A700BDFFD084802751
S11E084704860EA7000886809765C6BF863CB7F083F7F082BDFFD0A7000886AE
S11E08622CB7F083F7F082BDFFE47A006526E2BDFE3839A6003608868097651F
S11E087DC6CFA600BDFFDAF7F082087A006526F2327E01AD960CBDFE038606D9
S11E0898BD01ADBDFFD08408260CCE000BBDFDEF960C814126E3397E08C67E9A
S11E08B308BE7E08C67E08C67EEB02DFFCBDFECADEFC39DFFCBDFEE5DEFC395C
S9030000FC
