S0030000FC
S5030002FA
S113B0007EB0447EB9107EB63D7EB6097EB60C7E17
S111B010B62C7EB5C47EB6307EB90A7EB90D6C
S503003CC0
S113B044BDB012FEB00486A3C602AB01E900B7B0DA
S113B0542CF7B02BEE00FFB029FFB0277FB020BD42
S113B064B45BCEB47CBDB431BDB3F7BDB45BFFB047
S113B0741EFFB03ECEB491BDB431BDB3F7FFB042B0
S113B084BDB45BCEB4ACBDB431BDB3F7BDB45BFFEA
S113B094B038FFB03AFFB03CFEB01EBDB009255233
S113B0A4810027F7815026037EB178814E26037EE2
S113B0B4B1C2815826037EB22F814D26037EB1A7E7
S113B0C4815226037EB15D803081092F0280077D81
S113B0D4B020260C48484848B7B02173B02020BBA0
S113B0E4F6B0211BA700FFB04008BDB3DE73B02047
S113B0F420A9BDB45BBDB45BCEB4E9BDB431BDB469
S113B1045BCEB03EBDB441CEB040BDB441BDB45B32
S113B114BDB45BBDB33FBDB45BCEB4C4BDB431BD3B
S113B124B45BCEB038BDB441FEB03CBCB0382704E7
S113B13409FFB03CCEB03CBDB441BDB45BBDB45B0F
S113B144CEB516BDB431BDB01881592606BDB45B65
S113B1547EB533BDB45B7EB0150909A601E600BB18
S113B164B01FF9B01EA701E70008BDB3DE08BDB3E4
S113B174DE7EB09F0909FFB01EA601E600BBB0390C
S113B184F9B038B7B03BF7B03AB6B03DF6B03CB01E
S113B194B03BF2B03A2406FEB03AFFB03CFEB01E17
S113B1A47EB09F0909A601E600BBB039F9B038A7FF
S113B1B401E70008BDB3DE08BDB3DE7EB09FC6065A
S113B1C4F7B0260909A600B7B022A601B7B023092F
S113B1D40909090909FFB040FFB024BDB2D2C1FF77
S113B1E4260EBDB292FEB02D6C08FEB0407EB09F18
S113B1F4C5012709CA80FEB02DE70820EDFFB0245D
S113B204B6B022F6B023FEB02D6C08A706E707FEFD
S113B214B024EE00FFB02DFEB024A700E701FEB079
S113B2242D8CFFFF27C4FFB02420E7C606F7B02601
S113B234090909090909FFB024FFB0220808FFB06D
S113B24440BDB2D2C1FF2612BDB292FEB02286FF27
S113B254A700A701FEB0407EB09FFEB02DE608C54E
S113B26401270DA606E607FEB022A700E70120E4A5
S113B274EE06FFB024EE008CFFFF26F6B6B022F6ED
S113B284B023FEB024A700E701FEB02220C0FEB024
S113B29427FFB02DBCB02B2609CEB466BDB4317ED5
S113B2A4B006FEB024A60008FFB024FEB027A70011
S113B2B408FFB0277AB02626E9B6B022A700B6B0B4
S113B2C423A7018600A702080808FFB02739FEB0A7
S113B2D429BCB027272BFFB02DFFB02FFEB024FFCD
S113B2E4B031B6B026B7B033CEB02FBDB3102714E7
S113B2F4FEB02D080808080808080808BCB027266A
S113B304D5C6FF39FEB02DE608EE06393637E60415
S113B314FFB034FEB034EE00A600FEB0346C012657
S113B324026C00FEB034EE02A100260CFEB0346CB4
S113B3340326026C025A26DB333239CEB4F7BDB489
S113B34431BDB45BFEB029BCB0272756CEFFFFFF46
S113B354B036FEB029FFB02D86FFA108271C0808CB
S113B36408080808FFB02FCEB036FFB0318602B704
S113B374B033CEB02FBDB3102513FEB02D0808088A
S113B384080808080808BCB027270F20C8FEB02DF9
S113B394FFB024EE06FFB03620E0CEFFFFBCB0368B
S113B3A4260139FEB024C606A60008BDB01B5A26E1
S113B3B4F7BDB445BDB441E600C5012606CEB500CB
S113B3C4BDB431C5802706CEB50CBDB431BDB45B64
S113B3D4FEB02486FFA7087EB350BCB042270139CF
S113B3E4BDB45BCEB4CCBDB431BDB45B31317EB03D
S104B3F4F65E
S5030014E8
S113B3F78D0CB7B3F58D07B7B3F6FEB3F5398D09E1
S113B40748484848168D021B39BDB01880302B0FA9
S113B41781092F0A81112B0781162E03800739868C
S113B4273FBDB01B20E3BDB01B08A600810426F670
S113B43739A6008D0EA60008200D8DF58DF3862004
S113B4477EB01B44444444840F8B30813923028BE0
S113B457077EB01B860DBDB01B860ABDB01B3953D2
S113B467594D424F4C205441424C45204F5645526A
S113B477464C4F5704454E544552204241534520AC
S113B487414444524553533A2004454E54455220AF
S113B4975550504552204D454D4F5259204C494D1A
S113B4A749543A2004454E5445522053544152546A
S113B4B7204F4620434F4D4D4F4E3A2004434F4DA6
S113B4C74D4F4E3A042A2A2A2A2A2A204D454D4FFF
S113B4D75259204F56455252554E202A2A2A2A2A73
S113B4E72A044C4F4144204C494D4954533A2004B3
S113B4F74C4F4144204D415004554E5245534F4CF7
S113B50756454420045245444546494E4544045350
S113B517415645204C4F414445442046494C453FFC
S10DB5272059204F52204E3A200410
S5030011EB
S113B533B6B041B0B03FF6B040F2B03E260481103D
S113B5432502860F8B04B7B5318003B7B532CEB568
S113B553BFBDB5B15FCEB5318D33CEB03EBDB59071
S113B563BDB590FEB03EBDB5907AB53226F8FFB0B6
S113B5733E533730BDB59033FEB03E09BCB04026D0
S113B583AFCEB5B8BDB5B1BDB00F7EB015EB00A657
S113B593008D05A60008200444444444840F8B30E2
S113B5A3813923028B07BDB00C39BDB00C08A6004A
S113B5B3810426F6390D0A53390D0A040D0A533151
S113B5C3047FB63F3F2FCEB840FFB7A6CEB640BDEB
S113B5D3B5FCBDB794DE230908A600810D271981A4
S113B5E32027F5812C27F1DF23CEB85AFFB7A6CE47
S113B5F3B6EABDB5FC7CB63F393F2CA6052706FE4B
S113B603B7A67EB7C4397EB8C436B6B63F2714810D
S113B61302270C373F05BDB7A87CB63F3F0633323C
S113B6237EB8E4CEB8757EB7C4397EB8FABDB8AD7A
S10FB633B6B63F81022603BDB8B23F1F2B
S5030001FB
S113B640000044534B0000B66A00000000000000F4
S5030001FB
S104B6582EBF
S5030001FB
S111B65C0400000000000000000000000000D8
S5030001FB
S113B6EA000044534B00FFB71400000000000000A0
S5030001FB
S104B7022E14
S5030001FB
S111B70604030000000000000000000000002A
S5030002FA
S113B794CEB6406F053F146D052706CEB7CA7EB7F3
S105B7A4C439A2
S5030017E5
S113B7A8CEB6EA6F053F14A605271081032706CEF7
S113B7B8B7E27EB7C4CEB8907EB7C439BDB4317E83
S113B7C8B63D494E5055542046494C45204F5045A6
S113B7D84E204552524F520D0A044F555450555459
S113B7E82046494C45204F50454E204552524F5211
S113B7F80D0A04434C4F53452046494C45204552B5
S113B808524F520D0A04494E5055542046494C454E
S113B8182052454144204552524F520D0A044F5577
S113B828545055542046494C4520575249544520B4
S113B8384552524F520D0A04494E56414C49442030
S113B848494E5055542046494C45204E414D450DCE
S113B8580A04494E56414C4944204F5554505554B6
S113B8682046494C45204E414D450D0A044D495347
S113B87853494E47204F55545055542046494C453A
S113B888204E414D450D0A044F55545055542046F9
S113B898494C4520414C5245414459204558495347
S113B8A854530D0A04CEB6402003CEB6EA6F053FC2
S113B8B815A6052706CEB7FB7EB7C439373F05CE94
S113B8C8B6403F18E605270AC108270BCEB80E7EF6
S113B8D8B7C43F06330C393F06330D39373F05CE1D
S113B8E8B6EA3F196D052706CEB8267EB7C43F06CB
S113B8F83339CEB6403F166D052706CEB7CA7EB794
S10DB908C4397EE1AC7EE1D1B9122E
S9030000FC
