                                                                     
S00320AA32                                                            
S1212000000044534B0000202A00000000000000000000000000000000000000000092
S121201E000000000000000000000000000000000000000000000000000000000000A0
S121203C00000000000000000000000000000000000000000000000000000000000082
S121205A00000000000000000000000000000000000000000000000000000000000064
S121207800000000000000000000000000000000000000000000000000000000000046
S12120960000000000000000000000000000000000000000CE20006F096F06CE21CE90
S12120B43F313F30CE2000D625C103262F7D0027260A962881032204A7092014CE201B
S12120D2D63F3139204E554D424552204552524F520D3F2FD625C13A26E43F2FD625F6
S11220F0C1012714CE20FA3F313920464F524DFB                              
S12120FF4154204552524F520DDE20FF202A9622B7202C3F2FD625C12E26DA7C202C51
S121211D3F2FD625C10126CFD622FB202CCE20103F05FE202A3F053F34313131315DDF
S121213B26B7CE20003F17A605271D81012616CE21503F31392046494C45204E4F547B
S121215920464F554E440D3F1E39EE273F05CE20103F05C60C3F12313131312707CEA7
S121217720003F1A20C5CE2000EE27A60FE610CE2000A71FE720EE27A611E612CE20CD
S121219500A721E7228600C603A70AE70B3F136D0527037E2160CE20006306A61FE676
S12121B320B720A4F720A5A621E622B720A6F720A73F136D0527037E216039205359B7
S12121D15354454D2046494C45204E414D453F2004B72217A60A8D35B72218CE21F598
S10421EF3FAC                                                          
