S0030000FC
S5030026D6
S11320007E238B414241306A1B4144432E000941E7
S113201044442E000B414E442E000441534C2EF9EF
S1132020084153522EF90742434330192442435383
S113203030192542455130192742474530192C4261
S1132040475430192E4248493019224249542E002F
S113205005424C4530192F424C53301923424C54FD
S113206030192D424D4930192B424E453019264224
S1132070504C30192A4252413019204253523019DF
S11320808D42564330192842565330192943424150
S1132090306A11434C43306A0C434C49306A0E4356
S11320A04C522EF90F434C56306A0A434D4E31D4EC
S11320B0FF434D502E0001434F4D2EF9034350581A
S11320C02F688C444141306A194445432EF90A442F
S11320D04553306A34444558306A09454E44324EBB
S11320E0FF454E5433D8FF454F522E0008455155F5
S11320F03451FF45585434AFFF4643423511FF462F
S113210043433546FF464442359DFF49462035F159
S1132110FF494E432EF90C494E53306A31494E580B
S1132120306A084A4D502FE66E4A53522FE6AD4CA2
S113213044412E00064C44532F688E4C44582F685B
S1132140CE4C53522EF9044D41433631FF4E414D8E
S11321503726FF4E45472EF9004E4946375BFF4E62
S11321604F50306A014F52412E000A50414737A068
S1132170FF5053482F483650554C2F4832524D4249
S113218037C1FF524F4C2EF909524F522EF90652C5
S11321905449306A3B525453306A39534241306A8D
S11321A0105342432E0002534543306A0D534549B0
S11321B0306A0F534556306A0B5354412E910753DE
S11321C054532FDA8F5354582FDACF5355422E00DD
S11321D000535749306A3F544142306A16544150C3
S11321E0306A06544241306A17545041306A0754E9
S11321F053542EF90D545358306A30545853306A9E
S113220035574149306A3E000000040404000400CC
S11322100024240424802442424242424242424254
S113222042000000000000808383828282828080DA
S11322308080808080808080808080808080808199
S1132240808000000000007E3BEC7E390C7E391952
S11222507E38E57E38E87E39087E38A07E39096D
S5030038C4
S1132375454E544552204F5054494F4E533A20042C
S11323857E3BE67E3BE97F2272BD2259CE2375BD95
S113239538617F226B73226BBD2385810D272681CE
S11323A54C260486702016814F260486B0200E81A3
S11323B553260486D02006814D26DD86E0B4226BA3
S11323C5B7226B20D3BD33BEFE2248EE00FF225F49
S11323D5FF27E3CE0800FF27E5CE27E3BD2BECFE60
S11323E527E3FF2261CE0100FF27E5CE27E3BD2BBE
S11323F5ECFE27E3FF226308FF2265FF27E5CE7F76
S1132405FFFF27E3CE27E3BD2BFDB627E3F627E43D
S1132415CE0009FF27E5CE27E5BD2BA1B72267F737
S11324252268CE0009FF27E3CE27E3BD2B7DB7271E
S1132435E3F727E4FE2265FF27E5CE27E3BD2BEC72
S1132445FE27E3FF22698620FE2265A70008BC2239
S11324556926F8CE0000FF226EFF2285CE0000FF1C
S11324652310BD30897F2284FE225FFF230A7F2348
S113247509FE2263FF228786FFB72374CE2372FFEA
S11324852372CE0000FF2270FF226CBD25687F22D7
S113249573FE226C08FF226CFE227DA600812A268B
S11324A508BD3089BD2C0E20E27D237426228120AF
S11324B52703BD26F6BD26F6B6227A810322E2BDA0
S11324C529408C35F127078C375B270220D36E0012
S11324D58120271DBD26F6C101270BCE0205BD2D82
S11324E5BBBD2C0E20A57C22737D22722603BD273D
S11324F5F8BD26F6C101270BCE0202BD2DBBBD2CAE
S11325050E2088BD29408100272DBD2857C1FF27EE
S113251528C52027247D23092708BD26377D2309BF
S11325252720FF230ABD2C0E7C2309BD26F6C10DE9
S11325352613F722D7200B6E00CE0207BD2DBBBD97
S11325452C0E7E2490CE22D7FF230CFE2278A600E3
S113255508FF2278FE230CA70008FF230C810D2613
S1132565EA20DF7D23092709BD25A57D2309270148
S113257539CE2312FF227BFF227DBD225024068EF5
S1132585A0427E3254810A27F1810027ED8C236114
S11325952705A700082004C60DE700810D26DB39B1
S11325A5FE230AA6008117260B7A23092705BD26D3
S11325B59B20ED39CE228FFF227DFF227BFF230E48
S11325C5FE230AA60008FF230A81262713FE230EED
S11325D5A70008FF230E8C22D6274B810D26E1394F
S11325E5E600802F08FF230ACE22D7FF230CA6007E
S11325F508812C2704810D26F55A26EFFE230CA607
S11326050008FF230CFE230EA70008FF230E8C22CF
S1132615D62713FE230CA60008FF230C812C27A024
S1132625810D26E1209A860DA700CE0203BD2DBBA0
S1132635208EFF228BBF2289BE2287CE230FC6069A
S1132645A60009FF228D3009BC22612733FE228DA5
S1132655365A26ECCE22D7A600810D27030820F78B
S1132665A600FF228D3009BC22612714FE228D3677
S1132675098C22D626EABF2287BE2289FE228B39FF
S1132685BE2263BF2287BE2289CE0251BD2DBBFE69
S1132695228B7F230939FF228BBF2289BE2287CE55
S11326A522D732A70008810D26F8CE230AC60632A2
S11326B5A700085A26F9BF2287BE2289FE228B3934
S11326C53637E604FF26F4FE26F4EE00A600FE26C1
S11326D5F46C0126026C00FE26F4EE02A100260C21
S11226E5FE26F46C0326026C025A26DB333239CC
S503000FED
S11326F67F227A7C227AFE227BFF2278A60008FFBC
S1132706227B812027F02206810D26471639815F18
S11327162302203FBD27C385012713FE227BE60043
S1132726C1202704C10D260AFE2278E600398580D9
S11327362704BD27733985402704BD275C398520C6
S113274626E68504270DFE2278E600C12426D9BD97
S11327562798394F5F39FE227BA6007C227A08FF30
S1132766227BBD27C3854026EDC6092043FE227B76
S1132776A6007C227A08FF227BBD27C3858026ED2E
S1132786854026E9C607F1227A2403F7227AC60190
S1132796201E7F227AFE227BFF2278FE227BA60061
S11327A67C227A08FF227BBD27C3850226EDC60359
S11327B67A227AFE227B09FF227B86023981202532
S11327C616815F22127F27DFB727E0CE27DFBD2BD6
S10C27D6ECFE27DFA600394F399F
S5030001FB
S10527E121E7EA
S5030015E7
S11327F8BD28B9FF227FA6008120262FFF27F6CE09
S113280827EAFF27F4C606FE27F4A60008FF27F4E4
S1132818FE27F6A70008FF27F65A26EBB62270A76C
S113282800B62271A7018640A70239BD287E26106A
S1132838FE227F8680AA08A708CE0206BD2DBB39D2
S1132848BD2893BC27F0270220ACCE022120EDBD81
S113285828B9FF227FA60081202603C6FF39BD2898
S11328687E2608FE227FE608EE0639BD2893BC279B
S1132878F026E2C6FF39FF27E38606B727E7CE2707
S1132888EAFF27E5CE27E3BD26C539FE227F0808DF
S113289808080808080808BC22692603FE2265FF00
S11328A8227F39FE227F8620C609A700085A26FA05
S11328B839CE2020FF27EAFF27ECFF27EECE27EAB0
S11328C8FF27F6FE2278FF27F4F6227AFE27F4A6DD
S11328D80008FF27F4FE27F6A70008FF27F65A2664
S11328E8EBFE27EAFF27F0FE27ECFF27F2CE27F0BE
S11328F8BD2BECFE27EEFF27F2CE27F0BD2BECB65E
S113290827F0F627F1FE2267FF27F2CE27F2BD2B28
S1132918A1FF27F04FC609CE27F0BD2B7DB727F0BE
S1132928F727F1FE2265FF27F2CE27F0BD2BECFE38
S106293827F03948
S5030007F5
S113293E0006B6227AB727E78657B7293C4FB72940
S113294E3BB6293B4CB1293C260386FF39F6293B7D
S113295EFB293C56F7293D4FCE293E5ABD2B7DB758
S113296E27E3F727E4CE2003FF27E5CE27E3BD2B8D
S113297EECFE27E3FF27E8FE2278FF27E5CE27E3C8
S113298EBD26C5250B26114FFE27E8E605EE0339B5
S113299EB6293DB7293B20A9B6293DB7293C20A12C
S5030012EA
S11329B57F29AE7F29AF7F29B2B729B3C12A262D36
S11329C5FE2270FF29AE8602B729B2732274FE2255
S11329D57BA60081202708810D2704812C2608FE6B
S11329E529AEFF2C685F39BD26F6B729B3B129B2E4
S11329F52606CE02045F5339810227148124270257
S1132A0520F07D29B227EBF729B4B729B27E29D363
S1132A15C1032611F6227AC1042F05CE021020D552
S1132A25BD2ACE203BC1092611F6227AC1052F0500
S1132A35CE021020C0BD2B2A2026C10127037E29E2
S1132A45F7BD2857C5802612C54027057322742073
S1132A550FC51027037322752006CE02117E29FAAD
S1132A65FF29B07D29B2260FFE29B0FF29AEB6296C
S1132A75B3B729B27E29D3B629B4812B2608CE292A
S1132A85AEBD2BEC20E8812D2608CE29AEBD2BFD4D
S1132A9520DC812A2615B629AEF629AFCE29B0BD8C
S1132AA52B7DB729AEF729AF7E2A73812F27037EA5
S1132AB529F7B629AEF629AFCE29B0BD2BA1B72982
S10A2AC5AEF729AF7E2A736E
S5030006F6
S1132ACEFE22787F2ACC7F2ACDF6227A09085A264E
S1132ADEFCF6227ABD2B18B72ACD5A272909BD2B0D
S1132AEE1848484848BA2ACDB72ACD5A271809BDDE
S1132AFE2B18B72ACC5A270E09BD2B18484848481C
S1132B0EBA2ACCB72ACCFE2ACC39A6008030810949
S1082B1E2F02800739BD
S5030014E8
S1132B2A7F2B237F2B247F2B267F2B277C2B27FE8F
S1132B3A227809F6227AF72B25085A26FCFF2B2835
S1132B4AE600C40F4FCE2B26BD2B7DFB2B24B92BBD
S1132B5A23B72B23F72B244FC60ACE2B26BD2B7D56
S1132B6AB72B26F72B27FE2B28097A2B2526CEFEF0
S1132B7A2B23393736A60136A6003686103630A6F8
S1132B8A035849680269012404EB04A9036A00266C
S1132B9AF03131313131393736A600E6013736346E
S1132BAA3086016D012B0B4C680269012B048111DB
S1132BBA26F5A700A603E6046F036F04E002A20148
S1132BCA2407EB02A9010C20010D690469036401BD
S1132BDA66026A0026E6A700E701EE0031313132C7
S1132BEA33393637A601E600AB03E902A701E70049
S1132BFA3332393637A601E600A003E202A701E719
S1132C0A00333239B6226B858026147D2272270F4F
S1132C1A7D2309270485102606BD2C2ABD2C71396B
S1132C2A37F62284C1002603BD2C447C2284F62272
S1132C3A84C13C26037F22843339CE2C4BBD3861B0
S1132C4A390D0C0D0A0D0A2E2E2E2E2E2E2E2E2E58
S10E2C5A2E2E2E2E0D0A0D0A0D0A046A
S5030013E9
S1132C6F2004CE2C6AB6226CF6226DBD2D5CCE2CC0
S1132C7F6BBD38617D23092708862BBD3888CE2D7F
S1132C8F59BD38617D2C65260D7D2C662608CE2D09
S1132C9F56BD3861202BCE2270BD3871F62C6627B5
S1132CAF20C101270ECE2C68BD3871CE2D58BD38EA
S1132CBF612045CE2C69BD3873CE2D56BD386120A9
S1132CCF37F62C652608CE2D53BD3861202ACE2C1D
S1132CDF67BD3873C1012608CE2D56BD3861201843
S1132CEFC102260ECE2C69BD3873CE2D59BD386165
S1132CFF2006CE2C68BD38717D22752704864320AB
S1132D0F1D7D22762704865820147D22772704867A
S1132D1F4E200B7D22742704865220028620BD3854
S1132D2F888620BD3888FE227DA60036BD388808E7
S1132D3F32810D26F4860ABD38887F2C667F2C6578
S1132D4F7F227439202020202020202004FF2D9D55
S1132D5FCE2D927F2D9CE001A20025057C2D9C2079
S1132D6FF5EB01A90036FF2D9FFE2D9DB62D9C8BF3
S1132D7F30A7003208FF2D9DFE2D9F08088C2D9C37
S1102D8F26D139271003E80064000A000172
S5030001FB
S10F2DA32A2A2A2A204552524F5223208B
S5030001FB
S1042DB220FC
S503002DCF
S1132DB8203A043637FF2DA1B62DA18B30B72DAF9D
S1132DC8B62DA2444444448B30B72DB0B62DA2840A
S1132DD80F8B30B72DB1CE2DB3B6226CF6226DBD54
S1132DE82D5CCE2DA3BD3861BD2D353332FE228531
S1132DF808FF2285FE2DA139BD3089BD26F6C10DF7
S1132E082608CE0204BD2DBB205BBD30B7F6308446
S1132E1827F0BD26F6C1232614733085BD26F6C1D6
S1132E2827260AFE227BA600B72C69200BBD29B5EC
S1132E38BD30D7F63085270CC680F73087C6C0F773
S1132E483088203CBD26F6BD30C4262A7D2275264E
S1132E580A7D22742605F62C68270FC6B0F730873A
S1132E68C6F0F73088BD315E2019C690F73087C6A2
S1132E78D0F73088200AC6A0F73087C6E0F7308834
S1132E88BD3113BD31C27E2490BD3089BD26F6C143
S1132E980D2608CE0204BD2DBB2032BD30B7F63056
S1132EA88427F0BD26F6BD29B5BD30D7BD26F6BDAD
S1132EB830C4262A7D2275260A7D22742605F62C1E
S1132EC868270FC6B0F73087C6F0F73088BD315E83
S1132ED82019C690F73087C6D0F73088200AC6A0D4
S1132EE8F73087C6E0F73088BD3113BD31C27E2480
S1132EF890BD3089BD26F6C10D2608CE0204BD2D2D
S1132F08BB202ABD30B77D3084270FC640F73087F1
S1132F18C650F73088BD30EA2020BD29B5BD30D76A
S1132F28BD26F6BD30C4260AC670F73087BD317C8D
S1132F382008C660F73087BD3131BD31C27E249088
S1132F48BD3089BD26F6BD30B77D30842606CE0255
S1132F5804BD2DBB7C3088BD30EABD31C27E2490CF
S1132F68BD3089BD26F6C10D2608CE0240BD2DBB55
S1132F782046C1232619733085BD26F6C127260F9E
S1132F88FE227BA600B72C68A601B72C692029BDB0
S1132F9829B5BD30D7F630852702201CBD26F6BDDD
S1132FA830C426207D2275260A7D22742605F62C37
S1132FB868270AC630F73087BD317C200FC610F762
S1132FC830872005C620F73087BD3131BD31C27E38
S1132FD82490BD3089BD26F6C10D26B3208CBD30A2
S1132FE889BD26F6C10D2608CE0204BD2DBB200ED0
S1132FF8BD29B5BD30D7BD26F6BD30C4260AC610D6
S1133008F73087BD317C2003BD3131BD31C27E2408
S113301890BD3089BD26F6C10D2608CE0204BD2D0B
S1133028BB20367D22722731BD29B5BD30D7FE229B
S1133038700808FF2282B62C69F62C68B02283F245
S11330482282C1FF26034D2B0DC10026034D2A06FB
S1133058CE0208BD2DBBB72C69BD3131BD31C27E4E
S11330682490BD30897D22722703BD382E7C2C65BF
S10F30787C2281BD2C0EBD31C27E249050
S503001DDF
S11330897F22817F22747F22757F22767F22777F38
S11330992C66F72C677F2C657F30847F30857F30E1
S11330A9867F2C687F2C697F30877F308839C141BE
S11330B92705C142270139F7308439C12C260BBDB4
S11330C926F6C1582604733086397F308639C1FF04
S11330D9260E7D22722703BD2DBB7F2C68732C68B5
S11330E9397D22722720F62C67B63084270F814256
S11330F92705FA30872003FA3088F72C67BD382E64
S11331097C2C65BD2C0E7C2281397D2272273FF6E9
S11331192C67B63084272581422705FA3087200396
S1133129FA3088F72C6720147D227227217F2274B4
S11331397F2275F62C67FA3087F72C67BD382EF68F
S11331492C69BD382E7C2C657C2C65BD2C0E7C220B
S1133159817C2281397D22722755F62C67B6308409
S1133169271F81422705FA30872003FA3088F72C74
S113317967200E7D22722737F62C67FA3087F72CE1
S113318967BD382EF62C68BD382EF62C69BD382E4D
S11331997D22752704C64D20077D22742705C65252
S11331A9BD38427C2C657C2C657C2C65BD2C0E7C41
S11331B922817C22817C228139B62271F62270BB5C
S11331C92281C900B72271F7227039BD3089BD380F
S11331D91ABD26F6C1012708CE0216BD2DBB205DF6
S11331E97D22722641BD27F8FE227FFF324CBD267F
S11331F9F6C12C26E3BD26F6BD29B5C1FF27DCFEA1
S1133209324C86BFA4088A10A708B62310A706B6AD
S11332192311A707B62C69F62C68BB2311F92310CF
S1133229B72311F72310BD2857FE227FEE06FF2C82
S113323968732C667322757C2C657C2C65BD2C0EF9
S10632497E24904C
S5030016E6
S113324EBD3089BD381A7D2272260FFE2270FF22F0
S113325E6E732272BD225C7E2467FE226EBC2270C7
S113326E2706CE0220BD2DBBB6226B85802606BD59
S113327E2C0EBD33BEB6226B852027037E334DCE76
S113328E33C8FF33D17F33D5FE22652009080808E1
S113329E080808080808BC2269260B7D33D52703C5
S11332AE7E32EB7E334DE600C12027E1E608C1FFF6
S11332BE27DBFF33D3FF27E5FE33D1FF27E3C60613
S11332CEF727E7CE27E3BD26C52205FE33D320BD5F
S11332DEFE33D3FF33D1C6FFF733D520B0BD2C2A2E
S11332EEC606FE33D1A600BD3888085A26F78620B6
S11332FEBD3888BD3871FF33D6E600C54027058634
S113330E52BD3888C5202705864DBD3888C510277F
S113331E058643BD3888C50827058658BD3888C537
S113332E042705864EBD3888E6002A06CE338ABDAC
S113333E3861FE33D6C6FFE700BD33BE7E328DBD87
S113334E33BEBD33BECE33A1B62285F62286BD2D45
S113335E5CCE3395BD3861BD33BEBD33BECE33AE08
S113336EBD3861CE2310BD3871BD33BEB6226B8518
S113337E402606BD22567E224A7E224D20524544C8
S113338E4546494E454404544845524520574552F6
S106339E453A2089
S5030003F9
S11333A6204552524F525304434F4D4D4F4E204CDD
S11333B6454E4754483D2004CE33C5BD3861390DCA
S10E33C60A045B5B5B5B5B5B000000C8
S5030008F4
S11333D8BD3089BD381ABD26F6C1012708CE0216AC
S11333E8BD2DBB20397D22722743BD2857C1FF2636
S11333F808CE0211BD2DBB2025FF2C68FE227FA616
S1133408088A04A708BD3438F62C68BD382EF62C73
S113341869BD382EC652BD3842C64EBD3842732CDB
S1133428667322777C2C657C2C65BD2C0E7E2490DB
S1133438FE227F8606E60036FF344FBD382E32FE64
S10A3448344F084A26EF3956
S5030006F6
S1133451BD3089FE227FFF34AD7D22732608CE0262
S113346113BD2DBB2040BD26F6C10D2605CE021687
S113347120EFBD29B5C1FF27E87D2272261FFE3446
S1133481ADA6087D2274260984BF7D227527028A90
S113349110A708B62C69A707B62C68A706732C6673
S10F34A17C2C657C2C65BD2C0E7E2490D8
S5030018E4
S11334AFBD3089BD381ABD26F6C101270BCE0216D1
S11334BFBD2DBBBD2C0E20477C22817C22817C221A
S11334CF817D2272260EBD27F8FE227FA6088A0868
S11334DFA7082028C67EF72C67BD382EBD2857BDF8
S11334EF3438C658BD38427F2C687F2C697C2C65D4
S11334FF7C2C657C2C65732276BD2C0EBD31C27E6F
S113350F2490BD3089BD26F6C10D2608CE0216BD06
S113351F2DBB201ABD29B5BD30D77C22817D2272E7
S113352F270FF62C69BD382E7C2C657C2C66BD2CA0
S113353F0EBD31C27E2490BD3089BD26F6C127272A
S113354F08CE0204BD2DBB203CFE227BE600C10D3C
S113355F27EFF72C697D22722703BD382EFE227BBD
S113356F08FF227B7C2281E600C1272706C10D2696
S113357FE4200CE601C127260608FF227B20D67C17
S113358F2C667C2C65BD2C0EBD31C27E2490BD30C3
S113359F89BD26F6C10D2608CE0216BD2DBB2039D6
S11335AFBD29B5BD30D77C22817C22817D22722733
S11335BF2BF62C68BD382EF62C69BD382E7D22745F
S11335CF2704C65220077D22752705C64DBD3842F4
S11335DF7C2C657C2C65732C66BD2C0EBD31C27E94
S11335EF2490BD3089BD381ABD26F6C10D2608CEEC
S11335FF0216BD2DBB2023BD29B5C1FF27F1BD3751
S113360F6A7D237427147D2C68260A7D2C69260570
S113361F7F2374200586FFB72374BD2C0E7E249060
S503002FCD
S1133631BD3089BD2C0E7F362F7F36307D22722618
S1133641307D2273260B733630CE0226BD2DBB206E
S1133651DFFE227F8620A708B6230AA706B6230B1E
S1133661A707BD26F6FE2278A600814326037336FA
S11336712FBD2576FE226C08FF226CBD2C0EFE2286
S11336817DA600812A260A7D362F27E5BD36E62050
S1133691E07F2273FE227DA60081202706BD26F647
S11336A1732273BD26F68604B727E7FE2278FF2727
S11336B1E3CE3722FF27E5CE27E3BD26C5260D7DC0
S11336C12273270ECE0227BD2DBB2006BD36E67E12
S11336D136727D2272260B8617FE230AA70008FF85
S11336E1230A7E24907D227226367D36302631FED1
S11336F1227DFF227BFE227BA60008FF227BFE2384
S11337010ABC22612610860DA70008FF230ACE02F7
S113371128BD2DBB200AA70008FF230A810D26D549
S1133721394D454E44BD3089BD381ABD26F6C10117
S11337312709CE0216BD2DBB7E34267D22722606B4
S1133741BD27F87E33EDF62310BD382EF62311BDC7
S1133751382EC650BD38427E33EDBD3089BD381A8E
S1133761BD377EBD2C0E7E2490BF2289FE23728C30
S1133771236A271DBE2372B6237436201BBF2289F8
S1133781FE23728C23722709BE237232B72374205D
S113379107CE0254BD2DBB39BF2372BE228939BD68
S11337A13089BD381A7D22722713F62284270E86AA
S11337B13CF02284BD33BE5A26FA7F22847E2490B3
S11337C1BD3089BD26F6C10D2608CE0216BD2DBB1E
S11337D12018BD29B5C1FF27F47D2272270FBD38FA
S11337E1037C2C657C2C65732C66BD2C0EB6227172
S11337F1F62270BB2C69F92C68B72271F722707E0E
S113380124905FFE2C68FF2282BD382EFE2282099D
S11338112706FF22825F20F1397D2273270E7D2244
S1133821722603BD28ABCE0223BD2DBB39B6226B54
S11338318540260C178D16BD2253178D14BD2253B6
S113384139B6226B854026F817BD225339444444C6
S113385144840F8B30813923028B0739BD388808A2
S1133861A600810426F639A6008D0EA60008200DB7
S11338718DF58DF386207E388844444444840F8B2F
S113388130813923028B0736BD238832810A260E03
S11338913637C6088600BD23885A26F83332397F65
S11338A1391B3F2FCE3B1CFF3A82CE391CBD38D881
S11338B1BD3A70DE230908A600810D27198120274E
S11338C1F5812C27F1DF23CE3B36FF3A82CE39C670
S11338D1BD38D87C391B393F2CA6052706FE3A8210
S11338E17E3AA0397E3BA036B6391B2714810227C4
S11338F10C373F05BD3A847C391B3F0633327E3B8E
S1133901C0CE3B517E3AA0397E3BD6BD3B89B63908
S10D39111B81022603BD3B8E3F1FFD
S5030001FB
S113391C000044534B000039460000000000000036
S5030001FB
S10439342E60
S5030001FB
S1113938040000000000000000000000000079
S5030001FB
S11339C6000044534B00FF39F000000000000000E3
S5030001FB
S10439DE2EB6
S5030001FB
S11139E20400000000000000000000000000CF
S5030002FA
S1133A70CE391C6F053F146D052706CE3AA67E3A53
S1053A80A03967
S5030017E5
S1133A84CE39C66F053F14A605271081032706CE39
S1133A943ABE7E3AA0CE3B6C7E3AA039BD38617EF4
S1133AA43919494E5055542046494C45204F5045E8
S1133AB44E204552524F520D0A044F5554505554FA
S1133AC42046494C45204F50454E204552524F52B2
S1133AD40D0A04434C4F53452046494C4520455256
S1133AE4524F520D0A04494E5055542046494C45F0
S1133AF42052454144204552524F520D0A044F5519
S1133B04545055542046494C452057524954452055
S1133B144552524F520D0A04494E56414C494420D1
S1133B24494E5055542046494C45204E414D450D6F
S1133B340A04494E56414C4944204F555450555457
S1133B442046494C45204E414D450D0A044D4953E8
S1133B5453494E47204F55545055542046494C45DB
S1133B64204E414D450D0A044F555450555420469A
S1133B74494C4520414C52454144592045584953E8
S1133B8454530D0A04CE391C2003CE39C66F053FA5
S1133B94156D052706CE3AD77E3AA039373F05CEB0
S1133BA4391C3F18E605270AC108270BCE3AEA7EDA
S1133BB43AA03F06330C393F06330D39373F05CE5F
S1133BC439C63F196D052706CE3B027E3AA03F064F
S1133BD43339CE391C3F166D052706CE3AA67E3AF4
S10D3BE4A0397EE1AC7EE1D13BEE96
S9030000FC
