

S1130100BD0BF97E0C0E7E1E427E1E367E1E2D7E9B
S1130110015C7E01677E036C7E04127E04037E0311
S11301207B7E04127E04037E037B7E044A7E043FAE
S11301307E03877E044A7E043F7E03877E044A7ED4
S1130140043F7E03877E044A7E043F7E03871F8329
S1130150010337180800031B157E1E6F7D001F2640
S1130160037E04127EE1D17D001F26037E04037EFC
S1130170E1AC7E14417E14417E1441524E4400177A
S1130180DF544142280012D0494E54280017A2439C
S11301904852242800197E414253280017D7534758
S11301A04E280017C053515228001CAA4C4F472810
S11301B0001BA745585028001C3F53494E28001BDC
S11301C032434F5328001B424154414E28001CC760
S11301D05045454B28001858504F5300185254416D
S11301E04E28001AE956414C280018CC41534328A4
S11301F00018A34C454E280018BD4C4546542428ED
S11302000018FA524947485424280019594D4944C2
S1130210242800190C53545224280019A2464E00D5
S11302201A4B55534552280017930099994C49533A
S113023054000CC94E4557000C015041544348002A
S11302400D28474F535542000F3D474F544F000F61
S11302505F4F4E000F1E5448454E000F0C5052493C
S11302604E540012A94C455400142E494E50555476
S113027000100C49460016C95245414400119B44E4
S11302804154410014A4524553544F524500121690
S1130290454E44000C13504F4B4528001835524529
S11302A05455524E000F8844494D0014CC444546E1
S11302B00019D3464F5200156F4E45585400163955
S11302C052454D00149F54524143454F4E001494DF
S11302D054524143454F464600149A4C494E453DBD
S11302E000198E4449474954533D00148253544FD6
S11302F050000F9C0800142E52554E000C93434F8F
S11303004E54000EAD4C4F4144000D8553415645AB
S1130310000D41415050454E44000D8853545249FC
S11303204E473D000D19504F52543D001470544F28
S113033000109B5354455000109B524541445900B2
S11303402044454C45544544001016FFFFFFFF0070
S113035052452D454E544552004552524F5220238A
S1130360200020494E204C494E4520007F001FDECE
S113037090A601A103270473001F39DE908613A7FA
S113038000B60158A70039DE906F016F036F006F4C
S1130390026300863EA701862EA70339A6008D0DB1
S11303A0A60008200C8DF58DF38620200E444444CD
S11303B044840F8B30813923028B0737368D17DF46
S11303C08ADE8CAD00DE8A323339DF8A37DE8EADC9
S11303D000DE8A3620113736961F2613B68004476E
S11303E0240AB68005847FB101562714323339B606
S11303F080042BF8DF8ACE8004BDE1ACDE8A20E7DE
S11304007E0C13DE90A6004724F9A601847F817F29
S113041027F1DE90E600575724F8A701E600572499
S113042017A601847FB10157260F8DD7B101572735
S113043007B1015627CA20F239B1015627C239DE65
S113044090E6032AFAA602A70239DE90817F2710DC
S1130450A700C636E701C63EE701E6012AFCA6006E
S113046039CE0340BD04C72008863FBD03BBBD058C
S113047096CE00B0BD03CA4D27FA810A27F681152E
S113048027F2B1015327DA810D2730B10154260E2A
S1130490B60155BD03BB8C00B027D90920D67D0019
S11304A08526038C00F826076F00C6217E0C56A70C
S11304B0000820C08623BD03BB20B66F00DFAE96C4
S11304C0852603BD04D6398D06200BBD03BB08A6C3
S11304D000847F26F6398D15CE04E08DF28D233904
S11304E00D0A15FFFFFFFF00FFFFFFFF00DF38DEEF
S11304F03A0909DF3A369638A7009639A70132DE61
S11305003839DE3AEE007C003B7C003B398DDEBDA1
S113051006B80F9F2835DE3AEE0020148DCFBD06B5
S1130520B80F9F283509090909090909DF5DEE009B
S1130530C60532A700085A26F93232A7009E2801C0
S11305400E8DBF398DA70F9F2835200B8D9FBD06BB
S1130550B80F9F28AE0034C605DE5D32A700085AE6
S113056026F932A7016F009E28010EBD06B18D92B7
S113057039BD03A5BD04EDEE0009095CA60026FA09
S11305800808085A5ABD04CF8D0C7F0040BD0502EF
S11305900808087E04C7368620BD132F3239BD0BE8
S11305A027BD0695251A16A601BD06952514BD0B73
S11305B07BEE00AD00BD06B1DE34313131310C3992
S11305C00B39BD06A22407812427030986200808C5
S11305D037E600C1282603088A8033BD04EDDE2AED
S11305E09C460D2709E100260CA10126080CDF63B7
S11305F0BD05020A396D012B1036A601812432266D
S113060003BD06C7BD06DD20D7EE0420D3BD03D647
S11306107F00868D8928013936372541DF34DE6332
S11306204D2B1C0808DF63DE5D9663A7009664A764
S1130630018D7E3332812426029786DE340C39BD47
S113064014AA2405BD06ED20015F37BD06ED17E6AB
S113065001C1A42602D78633BD153220C8DF34DE9B
S113066063E700A7014D2A19C60AE702E703BD1490
S1130670AA25035FE703A602BD150A6D0327CA2056
S1130680C3A60181242605BD06C79786BD06DDDF06
S113069046DE63208E36847F81412B0F815A2F0ED4
S11306A020093681302B0481392F030D32390C3265
S11306B039DE5D8D29DF5D39DE5D8D0320F70909A3
S11306C00909090909093937D63EC006DFAADBAB97
S11306D0D7ABC600D9AAD7AA33DEAA2008080808CF
S11306E008080808089C442B037E0EA8398D044D85
S11306F0260C39BD04ED8DC0A60681052F05C60163
S11307007E0C564F5F6D002BF56D062F215849D78F
S1130710529751584925E7584925E3DB5299512509
S1130720DDEB00890025D7BD09196A0626DBBD0566
S11307300239BD0B27BD060D25097D00862627BD80
S1130740054C39BD10AB2501398128261508BD0794
S1130750F7BD0B27812926020839C61301DF347E31
S11307600C56C60620F7C62420F38DC6BD0B278180
S11307705E27013908DF34DE5DBD06BFE60037279A
S113078006BD1BAABD06B1DE34BD0B27812D26088C
S1130790088D9FBD08E520028D98DF34DE5DBD061F
S11307A0BFA600335D26084D2705BD06B8202236B6
S11307B04D2A03BD08E5BD0AA3BD1C42324D2A0ED5
S11307C0BD09FBBD1C24BD06B1BD0A2B2003BD061B
S11307D0B1DE3420978D93BD0B27812A260B08BDEB
S11307E00B278D86BD0AA320EE812F260908BD079D
S11307F06ABD0A2B20E139BD0B277F0086812D2697
S113080008088DD1BD08E52007812B2601088DC578
S1130810BD0B27812B2608088DBBBD09C420F1819F
S11308202D2608088DAFBD09C120E54D39BD04ED65
S11308308D497D00862605BD050220BBBD0FF6BD92
S113084005028D379689817F25037E191CBD0B27F0
S1130850812B261E088D247D00862718BD04EDBD3E
S11308600FF609E601E700085D26F8DF88BD0502FA
S113087020D24D39C624DF347E0C56BD0B2781228D
S113088026249786080F9F2835DE88328122270B7D
S1130890A700084D26F5C6047E0C566F0008DF88B5
S11308A0309E28010E39BD0B27BD060D2401397D6C
S11308B000862725DF34BD06B8EE000F9F2835DEFD
S11308C088D63E32A7004D2706085A26F66F000840
S11308D0DF889E28010EDE3439BD06B839BD04ED2B
S11308E0BD06DE200CBD04EDDE5D09092006BD0455
S11308F0EDBD06E03637C6068699A000A700095A62
S113090026F6BD06DF0DC6068600A90019A7000954
S11309105A26F5BD0502333239368D08A600840FF8
S1130920A70032393637DF57C604DE57BD06E06804
S11309300086050969004A26FA5A26EE333239360A
S113094037DF57A60084F09753C604DE5764008649
S1130950050866004A26FA5A26F1DE57A6009B537C
S1130960A700333239BD04EDBD06B87F0056BD146F
S11309700E2419A6002A0B9756BD08EE860FA40074
S1130980A700A60026088D916A0620F66F066F055B
S1130990A60681652D1537C6058699A700085A262F
S11309A0FA8664A701BD06C13320D1819D2E03BD03
S11309B011607D00562703BD08EEBD06B1BD0502DA
S11309C039BD08E5BD04EDBD06B8BD140E2428BD2F
S11309D0093F6C06BD06B8BD140E2411BD093F6C59
S11309E006A606A10D27082DF38D1020EF8D0C8D82
S11309F023BD06B1BD0965BD050239DE5D3736C6C6
S1130A0007A60036A607A70032A707085A26F2DE73
S1130A105D3233393637DE5DC6060CA605A90C19DE
S1130A20A705095A26F5DE5D333239BD04EDBD1143
S1130A3060BD06B8BD140E2505C6087E0C566006BA
S1130A408D38BD093FBD08DD860B5F5C8DC66D002A
S1130A502AF95ABD08DD8DBCBD08DDBD06DEBD0624
S1130A60DEBD0924EB05E705DE5DBD09244A26DA6F
S1130A70BD06B18D867C00502059BD093F4F6D00E5
S1130A802A05BD08EE8680BD06B86D002A05BD089E
S1130A90EE8B80974AA606AB0D2805867824014084
S1130AA0975039BD04EDBD06B88DCFDF59BD06B1F1
S1130AB0BD09FBBD11608609DE59E600BD09195D5B
S1130AC02706BD0A145A20F7DE5DBD06DEBD093FC8
S1130AD04A26E5BD06B8BD09FB9650A706BD06B17A
S1130AE0BD09657D004A2A03BD08E5BD05023996A6
S1130AF032D633D03192302528DE2E9C2A272296F6
S1130B0030D631E001A200251A26035D2716DFAA9C
S1130B104FE604DBAB99AAD7AB97AADEAA9C2A2698
S1130B20DEDE2A0DDF2C39A600812026030820F7FB
S1130B304D39BD10AB2405C6077E0C56DFACBD068F
S1130B40B8E60623F2C1042EEE8605104D2706BD35
S1130B50093F4A20F7A6019730A6029731DEAC0C74
S1130B6039DE34A600084D26FADF3639DE34A60015
S1130B70084D2704813A26F6DF3639DFAC0F9F286B
S1130B80CE017A2016DFAC0F9F28CE032D200C8DCA
S1130B9096DFACDF340F9F28CE022C9EAC34083293
S1130BA0812027FB815F2F0284DFE60027161127AF
S1130BB0ED08BC015127178C0227271AE60026F1FD
S1130BC0080820D7089FAC9F349E28010E399E2820
S1130BD0010ECE02F6397E109BFE014EDF2EDF2A77
S1130BE0DF464F973297339740978697879754CE2F
S1130BF017A1DF678620973E397F0091B601509791
S1130C00968DD686409792863097937E0C93B60144
S1130C105097969E44CEA07FDF3A7F0085BD123365
S1130C208613BD03BB8614BD03BBBD04D6BD0159E9
S1130C30CE033ABD04C77F0040BD04B4CE00B0BDAE
S1130C400B27BD06A22505BD0DE620EA4D27E7BD0D
S1130C500B8FEE006E009E44010101010ED720BDF2
S1130C601233BD04D6DE5BEE00DF30963426067FF9
S1130C7000307F0031CE0359BD04CFCE0020BD0328
S1130C809CCE0362BD04CFCE0030BD03A5BD04D607
S1130C907E0C13DE2EDF3CDF36CE0075DF65CE1F03
S1130CA003DF5FDE2ADF46865509088C8000270EA5
S1130CB0A70001010101A10026046F0020EC09DF57
S1130CC044DF947F00957E0EB1BD1237CE0349BD3B
S1130CD004C7DE34BD0B272729BD0B32DF34BD0A20
S1130CE0F9DF24DE34BD0B27270408BD0B324FC6C1
S1130CF001DB3119D7319930199730BD0AF9DE2457
S1130D002006DE2ADF2CDE2E9C2C270A9C2A2706AE
S1130D10BD05710820F27E14A4DE34BD07F7BD06BC
S1130D20EDC47FD73E7E14A4BD0B61CE0EB1DF208F
S1130D309621369620363434343434BFA0087EE00D
S1130D40E3BD12378612BD03BBBD0DCEBD0DCEBDB6
S1130D500DCEBD0DD9BD0B27BD0695250A168604FB
S1130D60BD03BB17BD03BBDE2E9C2A270D8602BD27
S1130D7003BBBD0571088D5820EFB60156BD03BBFA
S1130D808D577E0C13BD0BD9BD123786119785BDC7
S1130D9003BBBD0B2716BD0695251737DE8EAD00A8
S1130DA03381032603BD03CA810426EFBD03CA11A0
S1130DB026E9BD03CA810226F9BD03CABD06A225E0
S1130DC0F4CE00B0BD0477CE00B08D1A20E48D00BF
S1130DD05F4F4A26FD5A26F9398DF5C6328600BD85
S1130DE003BB5A26F839BD0B32BD0AEF2411DEAC21
S1130DF0BD0B27271FDE2C9C2A271A8D4E2015DEBB
S1130E00ACBD0B27260ADE2A9C2E27088D0F200452
S1130E108D0B8D37398D34DE30DF3220F70F9F286C
S1130E20DE2C9E2A08080808083434343434A6001A
S1130E3034084D26F99F2A9F4635DE2C9C2A270626
S1130E4032A7000820F69E28010E39DEACBD0B8FB8
S1130E50DF48DE2ADF20D6AFD0ADCB0637DB2B86CA
S1130E6000992A91442441D72B972ADE2ADF46335E
S1130E700F9F2835DE209C2C270609A6003620F675
S1130E80DE2C9630A700089631A700089648A700E4
S1130E90089649A70008E700089EAC3432A700086A
S1130EA04D26F99E28010E39C6147E0C56DE5BDFF2
S1130EB036CE1E85DF5DDE94DF88DE369C2A26036F
S1130EC07E0C1309A60008813A2605DF347E17122A
S1130ED07D003627EBDF5B7D00872720BD04EDBD59
S1130EE01233BD0502865BBD03BB8620BD03BBBDBB
S1130EF003A5865DBD03BBBD04D62002080808080F
S1130F0008DF34090909EE00EE006E00DE34BD0B83
S1130F1027BD06A224497E1712C6207E0C56DE3455
S1130F20BD07F7BD06ED5D27F05AD755BD0B8FEE13
S1130F30008C0F5F272C8C0F3D270520DC7F00558C
S1130F40DE36BD0B6CDE658C00852605C6097E0C7D
S1130F50569636A700089637A70008DF6520037F5A
S1130F600055BD03D6DE34BD0B327A00552B0ABDC5
S1130F700B27812C26A30820EEBD0AEF2405C60703
S1130F807E0C56DF367E0EB1DE658C00752605C6F6
S1130F90107E0C560909DF65EE0020E7BD1233CE42
S1130FA002EDBD04CFBD0596DE36BD03A5BD0B6CB9
S1130FB0DF5B7E0C13BD04EDC6FFD7438D388D0770
S1130FC0BD0502397F0043DF88BD06B80F9F28DEC8
S1130FD08835DE5DEE00D63E32A7007D0043260450
S1130FE0812C27094D2706085A26ED20036F00346B
S1130FF0309E28010E3936DE889C94270B099C9478
S1131000270609A60026F70832DF8839BD1237966D
S1131010342605C6027E0C56DE34BD0B27812226FB
S11310200DBD082D812C26EB08DF34BD121F9696CA
S1131030810A250A9785BD04717F00852003BD04BC
S113104069CE00B0DFACDE34BD14272440DF34DECB
S1131050AC7D008626158D48241C4D2706CE0350F2
S1131060BD04C7BD0469CE00B020E6BD0B27010155
S113107001BD0FC42003BD051CBD0B27812C260117
S113108008DFACDE34BD0B2708812C27BB097F00A9
S113109040813A27034D26037E14A4C6037E0C56D2
S11310A0BD0B27974A08812D2704097F004A4F97D3
S11310B04C974D974EBD1160D65DD726D65ED72787
S11310C0C605BD0B27BD06A2240B812E2605974D10
S11310D00820EF0D390908A600BD06A2254280307C
S11310E0260F7D004C260C7D004D27EA7A004B200C
S11310F0E5974CBD04EDDE265D27167D004E2608DF
S1131100AB00A700085A200648484848A7007300C7
S11311104EDF267D004D26037C004BBD050220B624
S11311207D004D2608812E2604974D20A95F814518
S1131130261408A600812D2709812B2601088D3647
S11311402004088D3150964B1BBD04EDDE5DA706CF
S1131150BD06B1BD05027D004A2703BD08E50C3973
S1131160BD04ED37C607DE5D6F00085A26FA7F001E
S11311704B33BD050239A600BD06A22405C6027E76
S11311800C5680301608A600BD06A2250D58175827
S1131190581B16A60080301B160839DE34BD1427F0
S11311A02469DF34DE3C9C2E273E7D00862720BD4B
S11311B00B27272A81222705BD0FC4203BDF3CDEF5
S11311C094DF88DE3CBD087B250ABD0FB52029BD10
S11311D010A0242101A6002705C6197E0C569C2ABE
S11311E027F7A600084D26F6A603818426F00808F2
S11311F008080820B5BD051CA600812C260108DFBF
S11312003CDE34BD0B2708812C279209813A270341
S11312104D26C67E14A4DE2EDF3CDE347E14A4BD2F
S113122004EDBD0FF6A6002706BD132F0820F6BD5A
S113123005023996962025DE34BD0B27812326F33B
S113124008BD07F72710812C270B813B2707813A1C
S113125027047E144108DF34BD06ED178108250CF0
S11312607F009097918609164848201016484891A7
S1131270912601393697918680979032481BCE018A
S113128006DF8CDF8E9B8D978D8B03978F9690272F
S11312900DDE90A60381FF2605C6267E0C56DE8E43
S11312A00808080FAD00010E398D8CDE34BD0B2704
S11312B0813A27034D263109A60008813B2706BD44
S11312C004D67F004008DF367E0EB17E0C56010145
S11312D0BD182DBD0506BD06ED5AD0402F06BD052F
S11312E0965A26FA9E44200FBD082D7D00862604BA
S11312F08D642003BD121FBD0B27812C260E08967A
S11313004016C4F010270ABD059620F3813B260B36
S11313100896902698862C8D1620924D278F813A18
S1131320278BC60620A5862E20054F840F8B3036CA
S1131330BD03BB32812024013937D6405C7D009245
S11313402710D193250CD192240481202604BD04B6
S1131350D65FD7403339BD04ED965497A9BD06B87E
S11313604F974D6D00260D7D00A926208DBCBD052F
S1131370027E05966D002A07862D8DB3BD08EEA664
S11313800681092E3C81FF2D384D2E158D9C8D969E
S1131390974D6D062A278D927A00A927D16C0620D5
S11313A0F17D004D2617A6008D81BD09196A062618
S11313B0F57D00A926048D5624B4BD13268D362050
S11313C0ADA600BD132BBD0919BD13268D27864577
S11313D0BD132FE606813A27035A2A06862DBD132C
S11313E02F504F4CC00A2AFB4ACB0ABD132B17BD02
S11313F0132B7E136ED6A98D15240DA600BD132BB9
S1131400BD09195A26F120057D005426EE39BD0484
S1131410EDDE5D37C6066D002607085A26F80C2057
S1131420010DBD05023339BD060D25080D39DE3425
S11314308DF52505C6127E0C56BD0B2708813D2768
S113144004C60620F17D0086260FBD07F7813A27E2
S1131450034D26EDBD051C204BBD082D7D008626C1
S1131460037E0874813A27034D26D6BD0FB5203478
S1131470DE34BD07F7BD06ED17BD125CDE34D7962A
S11314802022DE34BD07F7BD06EDC10A2502C609D8
S1131490D754201086FF9787200A7F00872005BD38
S11314A00B612003BD0B6C7E0EB1BD04EDDE34BDBB
S11314B007F708812C270B8129261DDF34BD05027F
S11314C00C39BD074EDF34BD05020D39DE347F0013
S11314D086BD059E29022505C6057E0C564D2AF8B3
S11314E0DF34DE63E700A7018DC02405BD06ED20CF
S11314F0015FE703BD06ED17A7028D0EDE34BD0BB9
S11315002708812C27C8097E14A4BD04EDE601C177
S1131510A42602D786E6038D197D00862703BD061F
S1131520C7BD06DFDF46BD05029646A7049647A75A
S113153005394D2605C6157E0C56A10222F7E10396
S113154022F336A60297515D27155A27129651BDEC
S113155006DF7D00862703BD06C74A26F220EB324C
S1131560BD06DF7D00862703BD06C74A26F239DEA5
S113157034BD142725037E14347D008626F8DF3419
S1131580BD0B6CDE5DBD06BFA600E6019751D752C8
S1131590CE1F039651D6529C5F271CA1002610E152
S11315A001260C9636D637A10E2604E10F2708BD76
S11315B006DDBD06DD20DC8C1F832605C6167E0CE9
S11315C0569651D652A70008E70008DF5FDE34BD07
S11315D00B2708813D27037E1441BD07F7BD051C79
S11315E0BD0B858C033126EFDE34BD07F7DF34DE17
S11315F05FBD050DBD06DFDF5FDE34BD0B858C03EB
S1131600382609DE34BD07F7DF342003BD1C24DE91
S11316105FBD050DBD06DFDF5FDE34BD0B27813AFC
S113162027034D26B208DF36DE5FD636E70008D63C
S113163037E70008DF5F7E0EB1DE34BD14272503D3
S11316407E1434BD0B27813A27034D26D608DF3696
S1131650BD06B8A600E601DE5F8C1F032766DF5FC8
S11316608C1F03275BBD06BEBD06BEA10026EFE1AD
S11316700126EBDF61EE00BD0544DE61BD06DD86BB
S1131680026D002A028B03974FBD0544BD09C4CEE9
S1131690006FBD050DBD06B1DE610808BD0544BD82
S11316A017572407DE61DF5F7E0EB1CE006FBD05E4
S11316B044DE61EE00BD050DDE61EE0EDF3620E88E
S11316C0C6182002C6177E0C56DE34BD082D8D4B7D
S11316D0974F7D0086272FBD082D7D008626037E2B
S11316E00874DF34BD0FF6DF20BD0FF60F9F2835D9
S11316F0DE20324D2707A00026050820F5A6009E0F
S1131700280E8D5B2007BD07F7DF348D4A24037E46
S1131710149FDE34BD0B8FEE006E00BD0B270881D5
S11317203D2603860039E600813C2613C13D26048C
S113173008860239C13E26040886033986013981A8
S11317403E2705C6067E0C56C13D2604088605398B
S1131750C13C27E4860439BD09C1BD06B8A60036DC
S1131760964F4848CE1779DF209B21972186009910
S113177020972032DE204D6E00271620122B1220D7
S11317800E2B0E20F4260A200627042B022A020D13
S1131790390C39BD1827BD04EDDE67AD000FBD055A
S11317A00239BD1827C609E0065D2F08BD093F6C44
S11317B0065A20F56F05BD06B1BD0965BD06B839E9
S11317C08D65A6002710974ABD1C24BD06B87D0070
S11317D04A2A03BD08EE398D4E6D002AF920F4DE45
S11317E034BD0B278128260F08DF348D3ABD140E33
S11317F02405BD06B12008CE00696C00BD0544CEA9
S11318001D43BD0544BD0AA3BD06B8BD0919A60103
S113181036A603A70132A7036F06BD06B1BD09654D
S1131820CE0069BD050D398D04BD06B839DE34BD61
S1131830074EDF3439BD14AA25037E075ABD06EDD1
S113184037BD06F3D7529751DE5133E700DE347EBD
S113185014A496404C8D11398DD3BD06F3D75297FD
S113186051DE51A6008D0139BD04EDDE5DBD116070
S1131870C609E7065F80645C24FB5A8B64E704BDF9
S113188009245F800A5C24FB5A8B0AEB04E704BD3D
S11318900924AB04A704BD06B1BD0965BD06B8BDE6
S11318A00502398D47A60008812927037E075ADFE0
S11318B034BD0FF6A600BD18687F0086398DE44F4D
S11318C04CE600085D26F94ABD1868398DD5BD106F
S11318D0A02405C6277E0C56BD06B8398D0EBD0B57
S11318E027812C27037E076208DF3439DE34BD08E4
S11318F02D7D008626037E0874398DE0BD074EDFFA
S113190034BD06ED5C37C180241220208DCEBD1479
S1131910AAC67F2403BD06EDC1802505C6257E0C1D
S1131920565C37BD06EDC18024F2174ABD0FF60898
S11319304A2AFC09324A0F9F2835DE884D2B08338A
S1131940E700084A5D26F5096F00089E28010EDFAE
S113195088C6FFD786BD06B8398D81BD074EDF34F2
S1131960BD06EDC18024B5BD0FF637E600084C5D19
S113197026F94A3336102A014F16DE8820B1BD18E5
S11319802DBD06EDDE88E700086F000820C1DE34B7
S1131990BD07F7BD06EDD792175757104C97937EA6
S11319A014A4BD14AA24037E0874DE8CBD04ED9631
S11319B04036CE19CBDF8CBD1356329740BD05029D
S11319C0DF8CDE88096F00087E194FDE88A70008C7
S11319D0DF8839DE34BD0B27276C8146266808A6CC
S11319E000814E266108A600BD06952559BD0B2D24
S11319F081282652BD0B2D2A037E14A48A80A700B9
S1131A00BD059E2941C47FD7529751DF34DE63E779
S1131A1000DE34BD0B278129262CBD0B2D813D26EC
S1131A202508E600C13A271A5D2717D15226F2A6E7
S1131A3001BD06A224028620915126E5CA80E70052
S1131A4020DF097E14A4C6227E0C56DE34E600BDD7
S1131A500B2D8128264E08BD04EDDE2E9C2A27443A
S1131A60080808A6000881B12705BD0B6320EDBD59
S1131A700B2D0808A6001126F1BD0B2D08BD060D7F
S1131A802522BD0B2DBD0B2DDF24BD0502BD074E48
S1131A90BD051CBD04EDDE24BD07F7BD06B8BD05BC
S1131AA002DF3439C6237E0C56BD182D8D66CE1D3B
S1131AB055BD0544BD0A2BBD06B8BD17A5BD06B16D
S1131AC0CE1D55BD0544BD0AA3BD09C1BD1B14CE21
S1131AD01D4FBD0544BD09C1BD06B86D002B09CE1F
S1131AE01D55BD0544BD09C1398D47BD06B18D5A8B
S1131AF06D0026088601A700869AA706BD06B1BD1B
S1131B000A2BBD1B87398D0C8D0ABD0AA3CE009705
S1131B10BD050D39DE5DBD06BFA600A707089C5DA7
S1131B2026F77E06B1CE009DBD050DBD1160BD0634
S1131B30B139BD1AA98DCF8DECC607CE1DC18D223A
S1131B402045BD1AA98DBFBD06B8BD1C248DD6C6BF
S1131B5007CE1DEB8D0C8D2FA60681FA2C03BD112B
S1131B606039DF4137CE0097BD0544BD0AA3DE418D
S1131B70BD0544BD06C0BD09C4335A26E5CE009D4B
S1131B80BD0544BD0AA339BD1160DE5DBD06BFE6D7
S1131B9006E70D6D00270AC650E70BBD06B1BD0967
S1131BA0C4BD06B86F0439BD182DBD1160DE5DBD1E
S1131BB006BFA606C601E706D74EE6002F61C1039D
S1131BC025056F067F004EBD06B1CE1D61914E27DF
S1131BD0182A0B36BD0544BD09C1324C20EC36BD74
S1131BE00544BD09C4324A20E1CE00A3BD050D8DD4
S1131BF033BD09C1BD1B148D3ABD09C4BD0A2BBD3B
S1131C001B06BD1B25C609CE1D97BD1B628D24BDB9
S1131C100AA3CE00A3BD0544BD09C4BD06B839C698
S1131C20287E0C56DE5DBD11608601A700A706BDA7
S1131C3006B139DE5DBD11608602A7004A20EEBD03
S1131C40182DBD1B14CE1D61BD0544BD0A2BBD0658
S1131C50B8BD17A5E600BD06B1BD1B145D2A09BDBC
S1131C6008E5BD06ED502003BD06ED37CE1D61BD70
S1131C700544BD0AA3BD09C1CE1D5BBD0544BD0A13
S1131C80A3CE0097BD050DBD1C24BD1B25C60ACEE1
S1131C901E27BD1B62BD1B14BD0AA3BD1B14BD0AB8
S1131CA0A3BD1B8733EB06E70639BD18276D002655
S1131CB00139BD06B1BD1BAABD06B1CE1DFDBD05D2
S1131CC044BD0AA37E1C42BD182DBD1C24BD06B80C
S1131CD0BD06B8A600362A03BD08EE7F0043A6065B
S1131CE02F059743BD09FBBD06B1BD06B1BD0A2B47
S1131CF0BD1B06BD1B25C607CE1D3DBD1B627D0059
S1131D0043270CBD08E5CE1D49BD0544BD09C432B9
S1131D104D2A03BD08E57E1B870999996100009649
S1131D206682620000019807870000986766490090
S1131D30000796263200FF9663937300FF06812402
S1131D401100FE0837254169000157079632010347
S1131D5014159265010628318530010250000000F7
S1131D600002302585100101000000000103333317
S1131D70333300020000000000014285714300017A
S1131D8011111111000909090909FF0769230769DC
S1131D90FF0666666667FF0588235294FF0100000C
S1131DA00000019833333333000833333333FE9860
S1131DB001587302FD0275573192FB974947891602
S1131DC0F90160590438F701000000000195000092
S1131DD00000000416666667FF9861111111FE0287
S1131DE048015873FC9724426808FA020876757013
S1131DF0F8010000000001010000000001050000DE
S1131E000000000166666667000416666667FF08E0
S1131E1033333333FE0138888889FE01984126988C
S1131E20FD0248015873FC0275573192FBCE8000C5
S1131E30BDE2847EE27DCE80008D03847F39377ECF
S1131E40E223CE8000378112270F811127158113D9
S1131E502715811427157EE240C60436BDE35F32A0
S1131E607EE240C62020F4C61020F0C60820ECFE16
S1131E70E2A78C2400260DBD1E2D8614BD01068606
S1131E8013BD01063935B686F7FF81FEF764AC9EB3
S1131E90549C5DE4FF9574FF77FFFF64D4FFA7FFB4
S1131EA0FF94FFA03277FEFFDF81BFFD24F5FFAE74
S1131EB05DEF84FFFBFCF414F2FF2D7CBFD1A5FF82
S1131EC0104FDB021869105EE000FB01006BFBC2DF
S1131ED09908036003DFB100123B0958C30BBB022E
S1131EE000432BFFAB40010B4BFBFA040A380018EC
S1131EF0FA00BB89006B21FB020C101A0E533A2026
S1131F0027200CFFFCE6F73445FF47F7EC35E4FDEA
S1131F10A6FE65FFFF2424FFFFFCFF34A4FF84FF1B
S1131F20FE43F477F7FFFFFF7F94A6FFE6F8FFD5A3
S1131F3026FF24AFFFF6F68406FF4EFFE5F4BFFF4D
S1131F4000481A00005B89001A00FF030087AB59A0
S1131F504300A9E9815B52049843004F3992B300CE
S1131F60018A08DFB9011A48336F6E010A1008426A
S1131F70CF0BC900000D01013F0202040000210A39
S1071F807F8D2EFE21
S9030000FC
