Microsoft 6800 BASIC
  GRT version 1.0
  COPYRIGHT 1978 BY MICROSOFT

S12300007E14E37E1CFB7E035900000000004800002C000000000000000000000000000084
S12300200000000000000000000000000000000000000000000000000000000000000000BC
S123004000000000000000000000000000000000000000000000000000000000000000009C
S123006000000000000000000000000000000000000000000000000000000000000000007C
S123008000000000000000000000000000000000000000000000000000000000000000005C
S12300A000000000000000000000000000000000000000000000000000000000000000003C
S12300C0000000007C00CE26037C00CDB6EA60813A2408812027ED803080D039FFEA607EC4
S10500E003F621
S123010000000000000000000000000000804FC7522C7E1CFB0DA20F111892190618AC0EC8
S1230120220EF20F1D1AFE1BDE16D11B6A1C141C1A1C601CA4126F11880FCE122C11A8114F
S12301409411B311D011D77915C67915BB7B17097B17BD7F1B07500C55460C54454EC4465E
S12301604FD24E4558D4444154C1494E5055D44449CD524541C44C45D4474F54CF5255CE68
S123018049C6524553544F52C5474F5355C25245545552CE5245CD53544FD04FCE4E554C12
S12301A0CC574149D4434C4F41C443534156C54C5052494ED44C4C4953D44445C6504F4B4B
S12301C0C55052494ED4434F4ED44C4953D4434C4541D24E45D7544142A854CF46CE53502F
S12301E043A8544845CE4E4FD4535445D0ABADAAAFDE414EC44FD2BEBDBC5347CE494ED427
S12302004142D35553D24652C5504FD35351D2524EC44C4FC74558D0434FD35349CE54412E
S1230220CE4154CE504545CB4C45CE535452A45641CC4153C3434852A44C454654A4524943
S1230240474854A44D4944A400068C05C50A72076409950CDF09BF07EF0727070107850643
S123026075070B073E0798068B07A506C2127D133712960852056C0F2C1276085D06B005DB
S12302807206D3053A4EC653CE52C74FC446C34FD64FCD55D342D344C42FB049C454CD4F84
S12302A0D34CD353D443CE55C6204552524FD20020494EA0000D0A4FCB0D0A000D0A425281
S12302C04541CB003008080808C610DF73A60080812614EE01DF75DEA027089C7527088DB3
S12302E04220E6DE75DFA0DE734D398D2007369F7A0F9EA5DEA70809A600369CAB26F831AC
S12303009FA99E7A3206394F58DB839982CB268900251B9F7A917A25062213D17B220F39F4
S12303204FDF73DB7499739775D776DE7539C60CBD05587F0111BD08AEBD0945CE02858DFB
S1230340DFA600BD0947A601BD0947CE02A8BD092BDE8C082703BD19D9960927067C000A4D
S1230360BD08AE4F970AB70111CE02B4BD0112862C9711BD042BDFCDBD00C427F2250BCE6F
S1230380FFFFDF8CBD04867E0652BD07C5DE90DF10BD0486D75CBD051C2522D6ACE0018665
S12303A0FFDB7F997E977ED77F07369F7A0FAE003432A700089C7E26F89E7A3206961227DF
S12303C02B967ED67F97A7D7A8DB5C890097A5D7A6BD02EB07369F7A0F8E000D32A70008C4
S12303E09CA926F89E7A3206DEA5DF7EBD05468D037E036FDE7CA600AA01260139DFDD080F
S123040008080808A60026FB087E00DCC101271BBD0947BD09427A000D7A000D8608BD0914
S123042047095A260BBD0947BD08AECE0012C6018D458107272E810D273A81152602864094
S1230440810827C88103260C960C27E47F000C0D077E0693812025D8817D24D4814027C5C6
S1230460815F27BAA700C1482403085C8C8607BD094720BC7E08A937BD148233847F810FFB
S12304802603730111397F005F7A00CECE0011DFBF9F7A079761010F9ECD33C1202732D7F7
S12304A05BC1222755965F2628C13F2604C6992020C1302504C13C2518CE015B9ECD5F0822
S12304C032812027FBA00027F681802632CA80DEBF9FCD9E7A96610608DFBFE700272FC002
S12304E03A2704C1492602D75FC05426A9D75B0F9ECD335D27DBD15B27D708E70020F39E40
S1230500CD5CA600082AFBA60026B53320C1E701E702D6C0C00DCE0011DFCD399690DE7CCE
S1230520E600EA012710A1022208250BD691E1032305EE0020EA0DDFAB3926FBDE7C6F008D
S1230540086F0008DF7EDE7C09DFCDDE8ADF86BD0675DE7EDF80DF82CE0067DF6330EE00F6
S12305609E844F369792979397606E007C000ABD00CC22A7BD07C526A232328D9FA600AA0F
S1230580012605970A7E0359BD067BBD08AEA602E60308080808DF73BD19E28620DE73BD90
S12305A00947A600084D27D52AF5807FDF73CE015C4A2707E600082AFB20F6A6002BDE08FD
S12305C0BD094720F686809760BD07EFBD02C431312604BD032335C608BD0307BD0769DF7C
S12305E073D67437D67337D68D37D68C37C69FBD0BFEBD0ACCBD0ACAD6B5CA7FD4B2D7B21E
S1230600CE06067E0B6ACE16B0BD1837BD00CC81A42606BD00C4BD0ACABD1885BD0B64D621
S1230620A137D6A0378681368D517F000ADECDDF94A6002707813A27197E0C0808A6000858
S1230640AA000C07274F08A600978C08A600978DDFCDBD00C48D0220CF2766808024037EE3
S123066007EF811E24D34816CE0249BD0320EE00BD00C46E00DE7C09DF9839BD14D824FADC
S1230680BD047781032704811327F50D263307DECDDF943131DE8C08270709DF8EDE94DF6B
S12306A0927F0111CE02BB0624037E034E7E0359260FC620DE9226037E0330DFCDDE8EDF56
S12306C08C39BD121D26FA5CD10E24045AD70B397E0E222729BD0D98BD00CC26E4968AD684
S12306E08BD0B492B32514DE849784D785C02882002506D07F927E2405DF847E032E7E05DE
S12307004B26037E0546BD054B2014C603BD0307D6CE37D6CD37D68D37D68C37868C36BDDA
S123072000CC8D037E0628BD07C58D40089690918C2202DE7CBD0520251509DFCD3926FD61
S123074086FF97A0BD02C435810B270BC6048CC60E7E03307E0C083233D78C33D78D33D78D
S1230760CD33D7CE8D03DFCD39C63A865FD75A5FDECD17D65A975AA60027ED1127EA08819E
S12307802227EF20F2BD0AD8BD00CC81882705C6A2BD0BFE96B126058DD2DFCD39BD00CC41
S12307A025857E0659BD121D36818C2704818826A37A00B42604327E065BBD00C48D068184
S12307C02C27EE3139CE0000DF9024F88030975A9690D691811822D758495849DB9199907A
S12307E05849DB5A89009790D791BD00C420DBBD0CE8DFA0C6ADBD0BFE965E36BD0AD83227
S123080046BD0ACE2749DEB39684A10222232506D685E103241B967E91B322152506D67E3F
S1230820D1B4220DE600BD0FDEDEAFBD113ECE00B1DFAFBD117A07369F7A0FDEAF35DEA0DD
S123084032A7003232A70232A7039E7A3206397E18547C000A2003BD092EBD00CC274F279C
S12308605A819E26037E090481A126037E0904812C276F813B26037E0925BD0AD8DEB396D7
S12308805E26D4BD19F1BD0FE7DEB3960A27089609AB0081282006960DAB00910E23028D6A
S12308A00DBD092EBD094220B16F00CE0011860D7D000A2707BD09477F000939970DBD098C
S12308C047860ABD0947375F960A260AD60B27064F8D745A26FB960A2704D7092002D70D40
S12308E03339960A2706D609C11A2004D60DD10F25048DBA202F4D2704C00D2002C00E2402
S1230900F550201C36BD121A8129267B325D271581A1270C960A2704D0092002D00D2305FD
S12309208D205A26FBBD00C47E085FBD0FE8BD115C5C5A27ACA6008D0E08810D26F48D86BA
S123094020F086208C863F7D000A27037E15047D01112617368120250C960D910E2603BD48
S123096008AE7C000D3237BD14AC33393F5245444F2046524F4D2053544152D40D0A00964A
S1230980612707DE96DF8C7E0C08CE096BBD092BDE94DFCD397F01118122260ABD0BC9C60E
S12309A03BBD0BFE8D88BD0F227C000C8D0A7F000C9612260D7E07648D8B8D867E042BDE0B
S12309C098864F9761DF9ABD0CE8DFA0DECDDF90DE9AA60026099661264EBD09458DD9DFE3
S12309E0CDBD00C4D65E271CDECD975A8122270709863A975A862C975BBD0FEEBD124EBDCF
S1230A0008062006BD1928BD1854BD00CC2707812C27037E097FDECDDF9ADE90DFCDBD00E8
S1230A20CC272ABD0BFC209FDFCDBD07694D2614A601C606AA02274DA6039796A604979771
S1230A400808080808A600818326DD2092DE9AD66127037E0678A6002706CE0A607E092B79
S1230A60393F45585452412049474E4F5245C40D0A002605CE00002003BD0CE8DFA0BD02AC
S1230A80C42704C600204E35080808DF73BD183730A60797B5DEA0BD15C3BD1854DE7308C6
S1230AA008080808BD18B030E007270CEE0CDF8C30EE0EDFCD7E0628C610BD032035BD00B2
S1230AC0CC812C26F0BD00C48DAF8D0C6D0D76005E288DC6187E0330DECD09DFCD4FC637EF
S1230AE036C601BD0307BD0BAA7F00A4BD00CC80AC25148103241081014998A491A4255D35
S1230B0097A4BD00C420E8D6A4262D246B8B072467995E26037E110489FF16481B16CE01FB
S1230B2047BD032032A10024568DA1368D23DEA23226184D2771205078005E59DECD09DF22
S1230B40CDCE0B48D7A420DC640C7BA100243920DAA60236A601368D07D6A420827E0C084C
S1230B60D6B5A60030EE00313137D6B437D6B337D6B237D6B1376E00CE0000324D27288100
S1230B80642703BD0ACCDFA233815A271C817D271854D7623297B833D7B933D7BA33D7BBC7
S1230BA033D7BCD8B5D7BDD6B1397F005E8D5624037E1928BD0D4C245C812E27F481A62736
S1230BC04C81A527E881222608DECDBD0FE87E124E81A32611865ABD0ADFBD0DA296B3D616
S1230BE0B443537E0F1181A026037E0F6A80AF24308D06BD0AD8C6298CC6288CC62CDECD81
S1230C00A6001126037E00C4C6027E0330867DBD0ADF7E1B3DBD0CE8DFB3965E268B7E1838
S1230C203716588DE037C127251A8DCDBD0AD88DCBBD0ACD32D6B437D6B33736BD121D3254
S1230C40371620038DAB33CE0119BD0320EE00AD007E0ACC864F975CBD0DA2DEB3DF5ABD43
S1230C60186BBD0DA2965AD65B7D005C260694B3D4B420049AB3DAB47E0F11BD0ACE261024
S1230C8096BC8A7F94B997B9CE00B8BD18B020407F005E7A00A4BD115CD7B1DFB3DEBABD59
S1230CA0115E96B110270786012403D6B14097B507369F7A0F35DEB35C095A2604D6B520BC
S1230CC00B3208A10027F3C6FF2401509E7A3206CB0159D4622702C6FF7E1894BD0BFC1639
S1230CE08D0ABD00CC26F5395FBD00CCD75D979CBD00CC8D5724037E0C085FD75EBD00C4F2
S1230D0025048D48250A16BD00C425FB8D3E24F78124260873005ECB80BD00C4D79DD660EB
S1230D205A26037E0DEF9B60802826037E0DB37F0060DE7E969CD69D9C802719A1002604A1
S1230D40E101274808080808080820EC81412504805B80A539323681262604CE0DCF39DEE4
S1230D6082DFA7C606BD0320DFA5DE80DFABBD02EBDEA5DF82DEA9DF80DEAB969CD69DA706
S1230D8000E7014FA702A703A704A7050808DF9E3990800000BD00C4BD0ACA96B52A037E90
S1230DA00E2296B181902508CE0D91BD18B026727E18DC965D36965E365F37D69D37D69C7A
S1230DC0378DD233D79C33D79D3330A60136A6003696B3A70096B4A7015CBD00CC812C2775
S1230DE0D9D75CBD0BF632975E32975DC6FF865F37DE809C822730969CA1002606969DA151
S1230E00012709A602E603BD032120E7C612324D26037E1414965D260BD65CE104276EC668
S1230E20108CC6087E0330324D26037E0C08860497C07F00BF969CA700969DA701D65CE76D
S1230E4004BD0307DFA5C60B4F7D005D27063233CB018900A705E7068D6F97BFD7C00808CC
S1230E607A005C26E1BD032125B5BD030DC02182009782D7834F09A7059C7326F9DEA596E8
S1230E8082D0A6E70392A5A702965D263BE604D75C4F5F97BFD7C03297B333D7B4A105257B
S1230EA006224CE106244896C09ABF0C27048D19DBB499B308087A005C26D858495849CB0F
S1230EC0058900BD0321DF9E39861097A9A605977AA606977B4F5F584925147800C0790060
S1230EE0BF2406DB7B997A25067A00A926E9397E0E1F9F7A967AD67BCE00827D005E270D82
S1230F00BD115CBD1063CE00849686D687E001A2007F005E97B2D7B3C6907E189BD60D4FBC
S1230F2020EFDE8C0826A1C6167E03308D298DF2BD0BF9C680D760BD0CE88D2BBD0BF6C678
S1230F40ADBD0BFEDEAD96CDD6CEA700E701969ED69F8D757E0764C6A0BD0BFEC680D760BC
S1230F608A80BD0CEEDFAD7E0ACC8DEBD6AE37D6AD37BD0BF18DF033D7AD33D7AEDEADC6E9
S1230F8022EE0227A4DF9EA60336A60236A60136A60036BD1856DEADD6CE37D6CD37EE0024
S1230FA0DFCDD69F37D69E37BD0ACA33D79E33D79FBD00CC27037E0C0833D7CD33D7CEDE76
S1230FC09E32A70032A7013233A702E70339BD0ACCCE00FFBD19F43131CE00FE200ADFAF7B
S1230FE08D53DFB3D7B139098622975A975B08DFBDDFB3C6FF5CA600270E08915A27049145
S12310005B26F28122270109DFBFD7B196BD26078DCCDEBDBD1140DE638C00732605C61E8E
S12310207E0330BD185686FF975EDF65DFB308080808DF63397F005F375386FFD987998679
S1231040918425112204D185250B9786D787DE8608DF883339C61A965F26C58D0673005FB6
S12310603320D5DE8ADF86CE0000DFADDE84DFABCE00679C6327048D3B20F8DE7E9C802753
S1231080048D2B20F8DFA5DEA59C822750A602E603DBA699A597A5D7A6A6012AEAE6044FDF
S12310A058CB05BD03219CA527DF8D0820F8A60108082A24E6002720A6029186221AE60319
S12310C02506D1872702241091AB250C2204D1AC2306DFAD97ABD7AC0808080839DEAD2797
S12310E0FB4FE6005ADBAC99AB97A7D7A8DE86DFA5BD02EDDEAD96A9D6AAA702E703DEA9E2
S1231100097E106596B43696B336BD0BAABD0ACD3297BD3297BEDEBDE600DEB3EB00240597
S1231120C61C7E0330BD0FDEDEBDE6008D10DEAF8D2C8D0CDEBD8D26BD10177E0AECEE02DB
S123114007369F7A0F35DE885C200432A700085A26F9DF889E7A320639BD0ACDDEB3E600B6
S12311608D182613EE06099C86260A37DB8799869786D787330839EE02399C652609DF63FC
S123118009090909DF654F398D037E0F1F8DCA7F005E5D39BD1220C601BD103596B4BD0F87
S12311A0E2A70031317E10178D0220DE8DDF2767E600398D454FE1002303E6004F3736BD6E
S12311C00FE0DEAF8D9833BD032033BD114020D58D28A6001020DFC6FFD7B48D4C812927BD
S12311E005BD0BFC8D378D125F4AA10024CF16E00050D1B423C7D6B420C3BD0BF633D77A1E
S123120033D77B31313233D7AF33D7B0DEAFD67B37D67A3716263B7E0E22BD00C4BD0ACA6B
S1231220BD0D9B96B326F0D6B47E00CCBD118D26037E162EBD0320A600366F00DECDDFBF58
S1231240DE73DFCD8DE3BD192832DE75A700DEBFDFCD39BD0ACA8D07DF90BD0BFC20BE96A5
S1231260B52BB496B1819022AEBD18DCDEB3398DEEE6007E0F1F8DDBDE90E700398DD4D7F8
S1231280A05FBD00CC27028DD1D7A1DE90A60098A194A027F83981A726037E1406BD0AD862
S12312A0BD11AC377F00C186D336BD00CC270DBD0BFCC653D7C1BD0BFE306C008D65328D65
S12312C06E8D6E328D6BDE7CA6008D65A6018D614D260FA100260B8D58860A0826FD4A268C
S12312E0FA39A6027D00C12702A6038D44A6037D00C12702A6028D3908080808A6002A1BA5
S1231300D6C12717DFC2CE1528C67F085CC1F62705A10026F68CC62117DEC28D14084D27B8
S1231320A720D98DB4C69686FF8D065A26F9398D0037BD14AC333981A726037E14097F008A
S1231340B2819926087A00B2DECD08DFCDBD0AD8BD11AC96B22603BD053C37CE00C16F0047
S1231360C603E701E702BD13E981D3270E81D426F1E7016A0226EF630020046A0126E58D2E
S123138067331126D5DE7C0920468D5CA7007D00C1270E088D59A70009098D53A700082081
S12313A0088D4CA7008D48A700DFB396B3D6B4BD030D8D344D2A13D6C1270FDFC2CE15292E
S12313C016C47FBD0320A600DEC28D25A70026D98D16A70026B48D10A70026B208DF7ECEBF
S12313E002B4BD092BBD03EC0837BD148233398DF736A00094B232260139CE146DBD092B26
S1231400BD05587E0359C6FF865F37BD00C47C00607E0CE8BD0ACEA602E603BD0321DE73CC
S1231420E60458CB05DB748600976099739773D7743297B3260DC6048DAE81D226F85A26C4
S1231440F7200BBD132386D2BD132FBD132FDE739C752607D6B327967E12D9A600D6B32789
S123146005BD133120058D8009A7000820E24E4F20474F4FC40D0A00B680044624FAB68025
S12314800539B680042BFB8D1CC604F78006588D080D798004465A26F67D80062AFB7C80E3
S12314A0067A8006397F80068DF420ED368DF9C60A7A80048DE88DE1B780040D465A26F6E5
S12314C0F68006582BD33239F68004C40227F9B7800539F680045639F680040C2BF94F8D67
S12314E0CB0D39B68005B1800726078615B780042005863CB7800786FFB7801C863FB78068
S12315001D7E0003B7801C8120250B96098028260297097C00098637B7801D863FB7801D47
S1231520B6801D2AFBB6801C39808182838485868788898A8B8C8D8E8F2121212121212145
S123154021212121212121219091929798999A9B21219C939421212121212121212121215F
S123156021219D9E9FA0A12121B221212121A2A3A4A5A6A7A8A9AAAB2121212121ACADAE65
S1231580AFB0B1B321B4B5B6B7B8B9BABBBCBD21212121BE2121BFC0C1C221C3C4C521001A
S12315A000000000000000000000000000000000000000CE1AE8200BBD17547300B5730069
S12315C0BD2003BD17545D26037E186BCE00B8162761D0B1275E2B0A97B196BC97B5CE0065
S12315E0B150C1F82F4E4F6401BD16A7D6BD2A0963016302630343890097BE96B499BB9737
S1231600B496B399BA97B396B299B997B2172A4025028D585F96B2262D96B397B296B4974F
S1231620B396BE97B47F00BECB08C1202DE74F97B197B5398D650C20B35C7800BE7900B4A3
S12316407900B37900B22AF196B11097B123DF8C25057800BE200E7C00B127277600B27640
S123166000B37600B424048D0F27EC397300B57300B27300B37300B4DEB308DFB326037C0F
S123168000B239C60A7E0330CE0076A60397BEA602A703A601A70296B7A701CB082FEC967D
S12316A0BEC008270A670166026603465C26F6398100000002801956AA807622F18238AAB6
S12316C045803504F3813504F38080000080317218BD18852E037E0E22CE16C196B1808008
S12316E036868097B1BD15C3CE16C5BD17BBCE16B0BD15B8CE16B4BD1BA3CE16C9BD15C322
S123170033BD19B3CE16CD8D4B27488D638600977797789779D6B48D0ED6B38D0AD6B28D14
S12317200BBD182E7E161426037E16880D9677562721241096799BBB9779967899BA9778D9
S1231740967799B94697777600787600797600BE0C20DA39A60197BC168A8097B9D8B5D7B4
S1231760BDA60297BAA60397BBA60097B8D6B1394D27199BB1464928138B8097B126037E62
S1231780163196BD97B53996B543200232322B037E162E7E1683BD1878270F8B0225F47F63
S12317A000BDBD15CF7C00B127E93984200000BD1878CE17AB5FD7BD8D7D8C8D97276A7022
S12317C000B18DAC7C00B127CACE0077C603D75CC60196B291B9260D96B391BA260796B425
S12317E091BB26010D0759240CE700087A005C2B2E2728C60106250F7800BB7900BA790088
S1231800B925E22BCD20DE96BB90B497BB96BA92B397BA96B992B297B920DDC64020D6560F
S12318205656D7BE8D087E1614C6147E0330DE77DFB2967997B439E601D7B5CA80D7B27F5D
S123184000BEE600EE02DFB3D7B139CE00A92006CE00A58CDEA096B1A70096B58A7F94B2FB
S1231860A70196B3A70296B4A7033996BC97B5DEB8DFB1DEBADFB339DEB2DFB9DEB4DFBB22
S123188096B197B839D6B12708D6B559C6FF250150398DF1D7B27F00B3C68896B28080D7C1
S12318A0B1860097B497BE97B57E16107F00B539E60027D1E601D8B52BCFD6B1E1002617FF
S12318C0E601CA7FD4B2E101260DD6B3E1022607D6B4E00326013956D8B520AFD6B1274132
S12318E0C09896B52A067300B7BD166FCE00B1C1F82E07BD169B7F00B7397F00B796B54991
S12319007600B27E16A7D6B1C198241B8DCED7BE96B5D7B58080869897B196B4975A7E1645
S123192010D7B2D7B3D7B439CE0000DFB5DFB1DFB3DFABDFA9256B812D26057300B6200470
S1231940812B2605BD00C42559812E272D8145262EBD00C4256981A6270E812D270A81A520
S12319602709812B270520087300ACBD00C4254F7D00AC270A7000AB20057300AA26C596E7
S1231980AB90A997AB27142A0ABD17AF7C00AB26F82008BD17967A00AB26F896B62A887E95
S12319A01B3DD6A9D0AAD7A936BD179633C0308D022091BD1850BD1894CE00A57E15C3D622
S12319C0AB5858DBAB5880301B97AB209E91434FF8947423F794742400CE02AF8D10968C58
S12319E0D68D97B2D7B3C6900DBD189F8D037E092BCE01008620D6B52A02862DA70097B5C2
S1231A00DFBF088630D6B126037E1AE04FC1802208CE19D5BD170786FA97A9CE19D1BD18A0
S1231A20BA2E10CE19CDBD18BA2E10BD17967A00A920F0BD17AF7C00A920E0BD15B3BD188A
S1231A40DCC60196A98B072B08810824044A1686024A4A97ABD7A92E11DEBF862E08A700AD
S1231A605D2705863008A700DFBFCE1AECC68096B4AB0297B496B3A90197B396B2A90097B5
S1231A80B25C565928E92403C00B50CB2F080808DF9EDEBF0817847FA7007A00A926058669
S1231AA02E08A700DFBFDE9E53C4808C1AFE26BFDEBFA60009813027F9812E270108862B5E
S1231AC0D6AB271E2A03862D50A7028645A701862F4CC00A24FBCB3AA703E7046F052004D4
S1231AE0A7006F01CE01003980000000FE7960002710FFFC18000064FFFFF6000001BD18F4
S1231B0078CE1AE8BD183727614D26037E162FCE00ADBD18565F96BC2A10BD1906CE00ADC4
S1231B2096BCBD18BA260343D65ABD186D37BD16D1CE00ADBD17078D31324624AA96B1273F
S1231B40037300B5398138AA3B0774942E40772E4F707A88026E7C2AA0E67EAAAA507F7FE0
S1231B60FFFF8180000081000000BD1850CE1B458D3D96B1818825037E1787BD1906965A64
S1231B808B8127F436CE16B0BD15C3BD1704CE00A5BD15B88DA7CE1B498D177F00BD32BDB1
S1231BA0177039DFBFBD18508D058D08CE00A57E1707DFBFBD184BDEBFE600D7B608DFBFF4
S1231BC08DEDDEBF08080808DFBFBD15C3CE00A97A00B626EB399835447A6828B146BD18BF
S1231BE085172B14CE010DBD18374D27E8CE1BD68DBDCE1BDABD15C3D6B496B297B4D7B2BB
S1231C007F00B596B197BE868097B1BD1614CE010D7E1856CE1C83BD15C3BD1878CE1C8733
S1231C20D6BCBD17B6BD1878BD19067F00BD96B8D6B1BD15BBCE1C8BBD15B896B5362A0A09
S1231C40BD15B396B52B06730062BD1B3DCE1C8BBD15C3324D2A03BD1B3DCE1C8F7E1BA315
S1231C60BD18507F00628DB2CE00AD8DA4CE00A5BD18377F00B596628D06CE00AD7E17BB66
S1231C803620C781490FDB83490FDB7F00000004861ED7BA879926648723345886A55DE0B9
S1231CA083490FDA96B5362A028D2096B13681812505CE16B08DC6CE1CCF8DA13281812541
S1231CC006CE1C83BD15B8324D2A037E1B3D3908783BD74A7B846E027C2FC1FE7D9A3174D7
S1231CE07D5A3D847E917FC87E4CBBE47FAAAA6C8100000000CE1E41BD092BB68005B1803F
S1231D00072618CE1478FF0479FF13EBCE14C8FF0968FF1333CE14D3FF067CCEFFFFDF8CDB
S1231D208E1F369F847F0111BD08AECE0067DF63CE1EC5BD092BBD09B8DFCDBD00C481410F
S1231D4027B34D2615CE1ED2088637A700A10026174AA700A10027F0200EBD00CCBD07C52C
S1231D604D27037E0C08DE9009DF8ADF86CE1E62BD092BBD09B8DFCDBD00C416271CBD070A
S1231D80C5969026E89691811025E2970E800E24FC40800E9B0E970F20088648970E8638BE
S1231DA0970FC6CE86FFDB8B998A25037E032E9784D785CE1E2CBD092BBD09B8DFCDBD0099
S1231DC0C4CE1CF48159272481412704814E26E3CE0E22FF0133CE1CA48141270FCE0E22BE
S1231DE0FF012DFF0131FF012FCE1C144FA70008DF7CDE842B058C1F362BB19E84967CD6A2
S1231E007DBD030DBD08AED685D07D9684927CBD19E2CE1E71BD092BCE092BFF0113BD0554
S1231E203C86BD9703CE0558DF047E035957414E542053494E2D434F532D54414E2D415475
S1231E40CE000D0A0C434F505952494748542031393738204259204D4943524F534F46D4CA
S1231E600D0A005445524D494E414C2057494454C80020425954455320465245C50D0A0D3E
S1231E800A4D4943524F534F465420363830302042415349C30D0A475254205645525349E1
S1231EA04F4E20312EB00D0A434F505952494748542031393738204259204D4943524F53E1
S1161EC04F46D40D0A004D454D4F52592053495AC50000D7
S9