
S0030000FC
S5030001FB
S1060DBE7E60064A
S5030001FB
S1060A8C7E602E57
S5030001FB
S1060AAE7E60362D
S5030004F8
S11360008E61027E6134BD0BA4D72A972BDE20FF5C
S1136010611EDE22FF6120DE24FF6122DE26FF6195
S113602018DE28FF611ADE2AFF611C7E0DC50F9F52
S10D603038DE2A7E0A909E380E39ED
S503006D8F
S1136134BD63E2BD63F3BD6403BD64332003BD6189
S11361445FBD64B8BD63F8BD64BCBD624FBD63FE8E
S1136154BD62EF7E61427EE11320E301FE6103BC74
S11361646105FF6107B66108F66107B06106F26173
S113617405C100270286FF810525E1816425028685
S113618464B7610BFE6107FF6105FE610908FF61E5
S113619409C6008620B06112B7610F2402C6FFF756
S11361A4610E48594859485948594859BB6129B757
S11361B46129F96128F76128C12A2D08CE2A00FF34
S11361C46128200AC1D62A06CED600FF6128F661CA
S11361D428F70109C6008630B06113B7611124029F
S11361E4C6FFF7611048594859485948594859BB9A
S11361F46127B76127F96126F76126C1382D08CED6
S11362043800FF6126200AC1E02A06CEE000FF61BF
S113621426F66126F70107B661299701C600B6611F
S1136224282A015A7800014959780001495978000B
S1136234014959D7009701B6612BF6612A9001D21E
S113624400B7612BF7612AF7010B3901F6610B865C
S113625400D7009701FE6124DF02BD021CF7612C04
S1136264B7612DFE6118DF00FE611CDF02BD021C54
S1136274D7009701FE612CDF02BD021CF7612EB723
S1136284612FB60105F60104B0612FF2612EB70146
S113629405F70104FE6118DF00FE6122DF02BD027E
S11362A41CD7009701FE612CDF02BD021CF761328A
S11362B4B76133B60101F60100B06133F26132B75C
S11362C40101F70100FE611EDF00FE612CDF02BD47
S11362D4021CF76130B76131B60103F60102BB61F8
S11362E431F96130B70103F7010239B601022A0119
S11362F439B6010981182D037E631F81E82A037EC0
S1136304631FB6010781182D037E631F81E82A03E6
S11363147E631F7E631ACE634B2003CE633EBD644B
S113632422CE6359BD6422BD642F81312609CE6611
S113633466FF64047E61347EE1130D0A0D0A435240
S1136344415348210D0A040D0A0D0A4C414E44459B
S113635444210D0A040D0A0D0A50524553532031A9
S113636420544F20464C4947544820414741494E04
S11363742C20414E59204F54484552204B45592016
S1136384544F2051554954203F04CE01008658BD32
S113639463C18659BD63C1865ABD63C18650BD635A
S11363A4D18642BD63D18648BD63D1864ACE61128B
S11363B4BD63C1860DBDE1D1860A7EE1D1BDE1D1C3
S11363C48620BDE1D1BDE0C886207EE1D1BDE1D106
S11363D48620BDE1D108BDE0CA86207EE1D15FC636
S11363E400CE18008D01394FA700085A26FA3986C1
S11363F401BD66FD8603BD66FD3986067E66FDCE57
S113640464E8BD6422CE666BBD6422BD642FCE13E2
S11364140081312703CE1100FF010FCE6666A6006A
S11364248104260139BDE1D10820F34F7EE1ACCECD
S1136434D500FF0100CEFC18FF0102CEF000FF01DD
S113644404CE0000FF0106FF0108FF010ACE180074
S1136454FF01118640B7010ECE0000FF6126FF61E3
S113646428FF612AFF611EFF6120FF6122CE7FFFA6
S1136474FF6118FF611AFF611CCE00FAFF6124CE8C
S113648464ABFFA000CE0000FF6103FF6105FF6160
S113649409CE801086FFA702863DA7038680A70243
S11364A48604A702010E39CE8010A602FE610308F9
S11364B4FF61033BBD090039FE0111A60081552784
S11364C4013908A600975008A600975108A600971A
S11364D45208A600975308FF610C8605BD66FDFEAD
S11364E4610C20D70D0A0D0A202020202057454C8A
S11364F4434F4D4520544F20544845204D363830A1
S11365043020464C494748542053494D554C415436
S11365144F522050524F4752414D0D0A0D0A5448D0
S113652449532050524F4752414D2049532044452A
S11365345349474E454420544F20414C4C4F572017
S1136544544845205553455220544F205345542014
S113655455502054484520414952435241465460C1
S11365645320494E495449414C0D0A504F53495400
S1136574494F4E20434F4F5244494E4145532046C0
S1136584524F4D20555345522050524F4D50545361
S11365942C20454E474147452054484520464C4904
S11365A44748542053494D554C41544F5220414E71
S11365B4440D0A50524553454E5420414E205550E3
S11365C4444154454420475241504849435320448C
S11365D44953504C41592041532053545544454E3A
S11365E4542050494C4F5420415454454D50545315
S11365F420544F204D414E55455645520D0A54489A
S11366044520504C414E4520464F52204C414E4467
S1136614494E47204F4E20414E2041495253545233
S113662449502E20544F205553452054484520505A
S1136634524F4752414D20594F55204649525354C5
S1136644204D5553540D0A43484F4F534520414E52
S113665420414952504F52542044415441424153E1
S1136664452E0D0A0D0A0420202043484F4F53455C
S11366742054484520414952504F525420444154D7
S1136684414241534520415320464F4C4C4F5753AC
S11366943A200D0A0D0A2031203D20504152534F17
S11366A44E6053204649454C44204154205445549B
S11366B44552424F524F2C204E4557204A4552537F
S11366C445592E0D0A2032203D2041525457494346
S11366D44B6053204649454C44204154205445546E
S11366E44552424F524F2C204E4557204A4552534F
S11366F445592E0D0A0D0A3F0481012715810227ED
S11367045C8103271C810427458105274E810627C4
S113671457394FB7800C86FFB7800C863FB7800D7E
S113672439863F975896588D1486808D104C81E095
S113673426F97A00582CEE86C0B767333916F780E9
S11367440CC637F7800DE600C63FF7800D39D650E6
S1136754CB608DEAC6A0D0518DE4392047863DCE66
S1136764800CC600E702A703B76114F76115FF6143
S113677416CE800CA603848027FAA60216848026EB
S1136784F3C43FF76112A603848027FAA602168491
S113679480260220DFC47FF76113B66114F6611505
S11367A4FE6116394FC601D754D755D652D050D7A7
S11367B4562C06700054700056260286FFD653D019
S11367C451D7572C06700055700057BD6752D650E8
S11367D4D15227174D2D0AD650DB54D75090572049
S11367E4EAD651DB55D7519B5620E0D651D15326D6
S10567F4E33983
S5030001FB
S105A0486000B2
S9030000FC
