
USURPATOR I 
CHESS PROGRAM FOR 6800 MICROPROCESSOR
(C) 1980 H.G.MULLER
    
S108000100000A0908DB                      
S105000C033EAD                            
S11300163FFF0000FFFF060006000000FFFF06008A
S107002606B0060016                        
S10900310028008000001D                    
S11300400402030506030204010101010101010187
S1130050000000000000000000000000000000009C
S1130060000000000000000000000000000000008C
S113007008080808080808080C0A0B0D0E0B0A0CDF
S113008000050A0F0F0A05000514191E1E19140590
S11300900A1923282823190A0F1E282D2D281E0F7C
S11300A00F1E282D2D281E0F0A1923282823190A6C
S11300B00514191E1E19140500050A0F0F0A050060
S11301007E01187E01187EEB177EEAE67EEAF17E18
S1130110EB0D7EEABB7EE80F8E07FFBD01E77C0096
S113012030B69003858027F68DE8810D26397F004F
S113013033C6099632811922097C0033810A2202CE
S1130140CB04D704CE033EDF0CBD0225DE147D00B4
S11301500027348C3FFF2742960E9719960F97215C
S1130160BD04698D6A20B436CE0596DF0CBD022528
S113017096329B0046973232BD019FBD0109BD04F2
S1130180699621973420978CD8002605CE06EB205B
S113019003CE06F6BD010C7E0115CE070120F58DB8
S11301A00A97198D03972139BD01128041251781C2
S11301B007221316BD01128031250B8107220788FF
S11301C0074848481B39CE06E5BD010C7E01189648
S11301D00E8D02960F3684078B418D0832444444B9
S11301E088078B317E0106CE0000DF2C8608972B12
S11301F05F8608972ACE06D0BD010C962BBD010F51
S1130200DE2CA64008DF2C9729DE28A6C0C8801B58
S1130210BD01067A002A26E8C8807A002B26D2CEB1
S113022006D57E010CCEC001DF107F0000CE000099
S1130230A64027089706840891052739088C0040B2
S113024026EE7D000026297C0000CE0274DF0CBD62
S1130250048C8DD9BD048CCE033EDF0C7F0000DE00
S1130260148C3FFF2605CED8002007BD04A1200230
S1130270DE10DF14399806484848488B0F971F86CC
S11302800F971DDF18DE1EA60027092A1343971FA8
S1130290840F971D7A001F7A001D2AE9DE18209C1E
S11302A09708840F970996195F91232602CA02D7EB
S11302B0258407970A9819970BDE1CD60AEB70174A
S11302C0D70AC4F826CED60BEB801BD70BC4C7269F
S11302D0C3D6259721DE20A6409707270B840891D3
S11302E00527B15C861020028620950826A6A64024
S11302F0840781062606CE3FFFDF14399621911A22
S11303002602CA04911B2602CA0891222602CA1098
S1130310D725DE0CAD0096254725207A00092699BD
S11303207C0009961F81032608960B8128278A20C2
S11303300A81112606960B811027F27E0294911BE6
S1130340261E96199123261830961AA10426119672
S113035022A105260BBD04A1DF129613D612202676
S1130360DE24A6909B0291042505CE000020E936E8
S1130370BD04EB32BD03C9DE148C3FFF2730961356
S1130380D6129015D2147C0000D1102D212E049188
S113039011231B9711D710D1162D062E2191172446
S11303A01D7D000126089621970F9619970E7D0052
S11303B001260A9600B7FDFADE10FFFDF839313147
S11303C07E0270CE0000DF1439D6015CD10324F321
S11303D0D701D602379702BD0469960836961F36B0
S11303E09625369616D61736379612D6133637D044
S11303F01192109716D7179610D6113637960036E5
S1130400960A36960B36960936960636960736962B
S11304101B36DE19DF1A962336DE21DF22BD0225C4
S1130420DE22DF21329723DE1ADF1932971B32973F
S11304300732970632970932970B32970A329700A0
S113044033329710D71133329712D71333329716AA
S1130450D71732972532971F840F971D329708BDFF
S113046004933297027A000139DE18A6406F4036B1
S113047016840781012210962184382704813826A6
S11304800631C408CB053732DE20A740960588081C
S1130490970539DE209607A740DE189606A7402068
S11304A0EBCE0000DF2EA640DF2CBD0585DE2CA69A
S11304B04084088808910527067300127300139678
S11304C02ED62FD9139912972ED72F088C00402699
S11304D0D5DE2E39DB2BD736DE35E640C408D10510
S11304E02608E640C1082702C101399607BD0585E3
S11304F04FD606C407C10626179621BD059A36961F
S113050019BD059A33104848D63326528014204E1C
S1130510C1032252C10224468B14D619C438D72BE6
S1130520D819D72AC0022B048DAA2702800AD62AFA
S1130530CB02C10824048D9C2702800AD621C0085E
S11305402B168D9226028014D621CB08C140240894
S11305508D84260280142006C608DB12D712DE2002
S1130560AB80DE18A08097132A037A001296012626
S11305701396308B279730444444449B1397132499
S1130580037C001239810826014C8407489727DE32
S113059026EEB0DF12397C0000398D1D972AD72B47
S11305A096348D15902A8D183617902B8D12331191
S11305B02E0337163248481B3916840754545439CD
S10805C04D2A01403941                      
S11306000000FF1100FB212100000000000000F7A2
S1130610001100ED2121000000000000000000E9AD
S113062000000000000000DF0101010101010101DF
S1130630000000CF0707070700000000000000C704
S1130640070707070000000000000000000000BBCF
S1130650070707070707070700000000000000A7B7
S113066001010101010101010000000000000097E7
S11306700100FF0001FFFF010201FFFEFEFF010276
S1130680000800F80808F8F808101008F8F0F0F866
S11306900403040004000400040204000400040031
S11306A00800080008000800080008000800080006
S11306B000000100030003000500090028000000F9
S11306C0202A504C54444B582B58706C74646B78EB
S11306D00D0A2020040D0A202020616263646566EF
S11306E067680D0A040D0A3F0D0A04494B20535450
S11306F041204D415404494B20535441205041540E
S10C070004494B2057494E210421              
S9