S00B00005820444454312E320F
S11301007E08F47E16417E013F7E01857E019D7E40
S113011001AB7E01B57E016B7E014C7E014F7EF00A
S1130120247EF0277EF0217E017B7E02337E025AFC
S11301307EF5647E011E7E01217E01397E013C7FB5
S113014000F27F00F67F00F57F00F7397C00F77D31
S113015000F727037CFF53BDF015CE02AFA10027A3
S1130160EE088C02B626F67F00F73981092602864E
S113017020810D26028DADBDF0183939324F8D899D
S11301805A26FA20A88DA3810D260B860ABD01D01C
S1130190860DBD01D04F7E01D0F07E01158D8BA65A
S11301A00081042788BD01D00820F47D00F2267068
S11301B07F00F520037C00F5CE02B7860DA700086A
S11301C08C02FF26F87D00F62703BD012D7E01EB8E
S11301D0DFF037BDE80C33DEF039F9CF200DB6FC83
S11301E0FD8455B7FCF48611BDF018CE02B70DBDE1
S11301F00275A700250C810D27088C02FE27EF0845
S113020020EC7F00F57E02188435B7FCF48613BD1C
S1130210F018B6FCF5B6FCF57C00F2CE02B7DFF3BD
S1130220DEF3A60008DFF3811A2704810D26037F7D
S113023000F2393900F62621367C00F67CFF627D17
S1130240FF02270A8610BDF9CF8630BDF9CF867F1D
S1130250BDF9CF8612BDF9CF32393914BDF9CF7D3E
S1130260FF02270A8610BDF9CF8639BDF9CF7F007A
S1130270F67FFF6239DFF07D00F52005BD0118200F
S11302801137BDE80933252120064724F7B6FCF5CC
S1130290847FCE02AFA10027DE088C02B626F68149
S11302A00926028620DEF00C39861ADEF00D3900AC
S10902B07F0A1112131471
S1131640000F8E00EBBD0106CE1CD6BD011EBD17DA
S113165022DE5ADF5C9633D632905DD25C9731D766
S1131660304F5FBD174986FFA700A701CE0001DFF9
S113167022DF268E00EBBD17588E00EBDE22DF241E
S1131680DE26DF284F972F4C972EBD1819962C81F4
S11316902D270A812B2706962D81012603BD185E6E
S11316A0962D2714962C811B27E0962CB71CF1CE7F
S11316B01CF0BD011E7E1673962C841F97589B58F0
S11316C09B585FCE16D1DF5C9B5DD95C975DD75C80
S11316D0DE5C6E007E1A487E1A9D7E1AA57E1ABBB9
S11316E07E1B077E1B497E16AA7E16AA7E1B527E8F
S11316F016AA7E1BBB7E1BDE7E1BE87E16AA7E1608
S1131700AA7E1C337E16AA7E16AA7E1C6D7E1C7FC2
S11317107E16AA7E16AA7E16AA7E01307E16AA7EA0
S11317201CCF7D03002710CE0130FF0101CE030042
S1131730DF5ACE163F200FCE1D06DF5A865508A766
S113174000A10027F909DF3239DE5ADF5C9B5DD93D
S11317505C975DD75CDE5C39BD01248640BD011514
S1131760DE30DF2009DF2A7F0035BD011897348180
S11317701826037E16738108262ADE309C2026064E
S1131780BD01247E1758D6209621BD1749A600977F
S113179034811B260486249734BD0115DE2008DF1E
S11317A0207E1812DE2608089C202603BD19A7DE19
S11317B02608089C2026088607BD01157E176A8125
S11317C00D2615BD0124DE2009DF20D6209621BD7B
S11317D01749860DA70020929634817D2604861B26
S11317E097349634811B26078624BD01152005965F
S11317F034BD0115DE2009DF20D6209621BD17490E
S11318009634A700861B9134260891352604BD0121
S11318102439963497357E176AD62A962B9021D28E
S1131820202A03BD17588602972DD62A962BBD175A
S113183049A600975080412B09865A90502B037F6C
S1131840002D965080302B0C863990502B067F004B
S11318502D7C002DDE2A09DF2A9650972C39962CF0
S1131860812D260686FF972F2004812B2603BD1881
S1131870197F002E962D81012619962C840F3696F9
S11318802E9B2E161B9B2E161B331B972EBD181931
S11318907E1874962F270A962E26067F002E7C002B
S11318A02E397F004BBD1819CE0036DF5C964B5F96
S11318B09B5DD95CD75C975DDE5C962CA700811B91
S11318C0270C964B80112A067C004B7E18A5BD1967
S11318D004DE4908270DD649964A9B23D922D749C5
S11318E0974A39CE1CF9BD011ECE0036D64B2709C6
S11318F0A600BD0115085A26F78622BD0115BD01B3
S1131900247E1673CE0000DF49D649964A9B23D91C
S113191022BD1749A60081FF273A7F0054D6499675
S11319204A9B23D9229B54C900BD1749A600975648
S1131930CE0036DF5C96545F9B5DD95CD75C975DC7
S1131940DE5CA60091562612A601811B270B7C00A3
S1131950547E191DCEFFFFDF4939965681FF27F4C7
S1131960DE4908DF497E1909DE22DF26D6289629BA
S11319709025D2242B21D6249625BD1749A60036BE
S1131980D6269627BD174932A700DE2408DF24DEB9
S11319902608DF267E196CDE2609DF26D626962742
S11319A0BD174986FFA700DE3009DF50D62A962BE3
S11319B09021D2202B20D62A962BBD1749A600367B
S11319C0D6509651BD174932A700DE5009DF50DECC
S11319D02A09DF2A20D6DE5008DF20DE3009DF2A7C
S11319E039DE22DF4C962F2604962E2638DE4C094B
S11319F0DF4C7C002E962E2715D64C964DBD1749EC
S1131A00A600974E81FF260DDE4C08DF4C39DE4CD4
S1131A100808DF4C39964E810D26037A002EDE4CE1
S1131A2009DF4C20D0962E260139D64C964DBD1791
S1131A3049A600974E81FF260139810D26037A00BD
S1131A402EDE4C08DF4C20DD7F002ED62696279014
S1131A5021D2208B48C9002A36BD010F972C811A48
S1131A60272DD6269627BD1749962CA700DE2608D3
S1131A70DF26962C810D26E1D62696279021D220AA
S1131A808B48C9002A097C002E962E813226CAD69C
S1131A90269627BD174986FFA7007E1679CE00013A
S1131AA0DF227E1679BD18A2D649964AD7229723FB
S1131AB09B4BC900D72497257E1B52962F27267F40
S1131AC0005C962E975DDE229C5C2A07CE0001DF27
S1131AD022200CD6229623902EC200D7229723BD13
S1131AE019687E1679D62296239B2EC900D7509763
S1131AF051D62696279051D2502A06DE26DF24207E
S1131B00DEDE50DF2420D8CE0001DF50DE2609DFE0
S1131B105CD65C965D9051D2502B13D6509651BD35
S1131B201749A600BD0109DE5008DF5020DEBD01C3
S1131B300F972C811A2706BD01097E1B2EBD0109B2
S1131B40BD0124BD01277E1679BD0127BD012D7E6F
S1131B501679BD1819962C811B275A817D2756DECC
S1131B60229C24263EBD1968DE26DF50DE200909AA
S1131B70DF24DF28D65096519023D2222B20D65032
S1131B809651BD1749A60036D6249625BD1749326D
S1131B90A700DE5009DF50DE2409DF2420D6DE242E
S1131BA008DF24D6229623BD1749962CA700DE22EF
S1131BB008DF22209DBD19687E1679BD19E1DE4C2F
S1131BC0DF24D62496259023D2222A0CDE22DF504D
S1131BD0DE24DF22DE50DF24BD19687E1679BD19AC
S1131BE0E1DE4CDF227E1679962F2725DE2209DFDF
S1131BF05CD65C965D902EC2002B0FD62296239065
S1131C002EC200D72297237E1679CE0001DF222030
S1131C10F6D62296239B2EC900D7509751D62696E6
S1131C20279051D2502B06DE50DF2220DADE26DF49
S1131C302220D47F002FBD19E1DE4CDF24FE0022D8
S1131C40DF50DE2409DF5CD65C965D9051D2502BC8
S1131C5013D6509651BD1749A600BD0109DE5008A0
S1131C60DF5020DEBD1968BD012D7E1679BD18A296
S1131C70D649964A9B4BC900D72297237E1679BD35
S1131C8019E1DE4CDF509C222742D6229623905144
S1131C90D2502A1CD6509651BD1749DF50D62296F1
S1131CA023BD17499C502724A600BD01150820F424
S1131CB0D6229623BD1749DF52D6509651BD1749F7
S1131CC09C522708A600BD01150820F47E1679DE73
S1131CD026DF227E16794D3638303020524553495E
S1131CE044454E5420454449544F5220312E320429
S1131CF0222022203F3F3F3F0443414E27542046A9
S1091D00494E44202204B8
S10600207E010357
S1040300FFF9
S1061B3D7EE80F2C
S105171A16AA09
S9030000FC

