S00B000046444F5320524553BE
S11EE800BDE8417E00207EE8597EE91B7EE98E7EEA797E0023BDE8877EF564BA
S11EE81BBDE887BDE82D7E0400BDE887BDE82D7E0020DE0FDF04960E9706961B
S11EE836030C46464697077F000839BDE859CE004EDF047F00067C00067F0001
S11EE851077F0008BDE887397FEC017FEC037FEC077FEC0086FFB7EC02B7EC31
S11EE86C068604B7EC018604B7EC07862CB7EC038680B7EC02860CBDEA3E3972
S11EE887BDE9122523815326F77FFF928D7D2510813027EC81312711813927A3
S11EE8A2E4811B2708863FBDF0187EF564398D294AB7FF938D23B7FF908D1E24
S11EE8BDB7FF917DFF93270D8D14FEFF90A70008FFFF9020EE8D077CFF922672
S11EE8D8CE20AC8D3525C88D1D25C448484848368D2825BB8D1025B7331B167D
S11EE8F3BBFF92B7FF927AFF9317398030250F8BE9250B8B062A048B07250315
S11EE90E8B0A0C39BDE91B2503847F0C397D0008264DCE0006BDE9EFDE040993
S11EE92926057F00080D39DF049607BDEA03BDEA4D868097088605B7FF9496A9
S11EE94406BDEA2B8602BDEA3EB6EC0084802705BDEA3820C7B6EC0084082782
S11EE95F0DBDEA387AFF9426E086017EEA57863CB7EC038640B7EC02B6EC00DF
S11EE97A36862CB7EC038640B7EC027FEC027A0008320C39B7EC068630B7EC1D
S11EE995027C000D960D81802701397F000D960CBDEA03BDEA4D8605B7FF9432
S11EE9B0960BBDEA2B8604BDEA3E8606BDEA3EB6EC0084082712BDEA387AFF36
S11EE9CB9426E7860EBDEA3EBDE9DC20CBBDE9DC39CE000BBDE9EFDE0909DFAE
S11EE9E6092B013986027EEA576C01A601841F811B270139A60184C1A7016CA9
S11EEA01003936841FCEEA5EFFFF945FBBFF95F9FF94B7FF95F7FF94FEFF949C
S11EEA1C33C4C0A6001BB7EC068620B7EC0239B7EC068610B7EC0286087EEA5C
S11EEA373E860AB7EC0239F6EC00B7EC02B6EC012AFBF6EC0039B6EC00842064
S11EEA5226013986038A30BDF0187EF564010A13020B14030C15040D16050EC9
S118EA6D17060F1807101908111A09128EFF8ABDE8417E002330
S11EEB00200E20397FEC057FEC04863CB7EC05390FBDEB048D2725228153263D
S11EEB1BF87FFF928D1C2510813027ED8131275F813927E5811B2707863FBDE6
S11EEB36F01820007EF564B6EC048634B7EC05863CB7EC05FFFF94CE0000B639
S11EEB51EC052B080926F8FEFF940D39B6EC04847FFEFF940C398DD425C88D29
S11EEB6C2325C448484848368DC725BB8D1625B7331B16BBFF92B7FF927AFF04
S11EEB87931739201820A520848030250F8BE9250B8B062A048B0725038B0A55
S11EEBA20C398DC14AB7FF938DBBB7FF908DB6B7FF91FEFF907DFF9327078DBF
S112EBBDA9A7000820F48DA27CFF9226C220C2D3
S9030000FC
