S114CE00110000B403000000000000000000100882BB
S10620007E30002B
S1233000CEC0816F00088CC5F926F886C3C673A700E701CB22890008088CC61F26F17FC060
S10A302080FECE037E2003B5
S104C08000BB
S105C65F0000D5
S123B4007EB400BB46B493C5F913C660079EC03AC03AB400B4277EB43A7EB43C7EB43FC67E
S123B4205FB440B45CB450CEB43EFFFFF8BDBD6BCEB4CAFFB5C4FFB5C6390F390E39013BC4
S123B4404F462400FEB44E08FFB44E7ECE15000000000000B458B493017ECE150000B478E4
S111B460000000000000000000000000B49393
S123B478000000000000B4820000CEB481BDCE2A20F8434F4E534F4C453A00010000B48A1E
S123B498B965B49CB653B677B751B8BCB72FB8C6B653B4B8B4B8B6ABB67AB6C0B4B80C3973
S10EB4B8BDCE2D040ABDCE307ECE3385
S123B5E00037DF00CEFF04E601E103C611E700E600575724FAA70133DE003937DF00CEFF50
S123B60004E601E1038615A700A6004724FBA601F6B5E027D620E0861120C6861320C2865C
S123B6201220BE861420BA810D270E81082712853C27037CB5CA7EB5E17FB5CA7AB5CA200C
S123B640F5BDB5E18620BDB5E186087EB5E101BDB5FB397FB5C88601B7B5C986FFB7B5E0D3
S123B6607FB5CACEB5CF86106F00084A26FA7FB5CC7FB5CB7EB4B67EB4B6FECE078600E6F1
S123B68003C12C260BB6B5CBBAC0807FB5CB2014C1012605B6B5CA200BC1022605B6B5C8B4
S123B6A020028600EE0AA7007EB4B6FECE07E603C11D271DC110270BC111270FC114272151
S123B6C07EB4B68601B7B5C97EB4B67FB5C97EB4B6FEB5C4BCB5C62705BDCE2D07757EB4B5
S123B6E0B6BDB8ABCEB5CFFFBD62C610FEB4C6A60008FFB4C6FEBD62A70008FFBD625A2621
S123B700EB7EB4B6FECE07A603B7B4C3EE0CFFB4C4FECE076F086F09FECE07EE0AFFB4C631
S123B72039DF009600D601FECE07A708E70939BDB704FEB4C4BDB721FEB4C4271209FFB4E7
S123B740C4BDB64EFEB4C6A70008FFB4C620E90C39BDB704B6B4C32608FEB4C427037EB4CD
S123B760B8FEB4C42605BDCE2D0773FEB5C4BCB5C62603BDB7D1CE0000FFB4C8FEB5C4BCA2
S123B780B5C62743FEB5C4A60008FFB5C4811A2736FEB4C6A70008FFB4C6810D26057FB59E
S123B7A0CA20037CB5CAFEB4C808FFB4C836BDB72132B1B5DF26037EB4B6FEB4C8BCB4C49F
S123B7C026BABDCE2D07738601B7B5C8BDCE2D03E97FB5CC7FB5DF7FB5CDCEB4CAFFB5C41C
S123B7E0FFB5C6BDB64EB7B98981032612BDB8F57CB5CCB6B5CC810226E0BDCE2D04117FE2
S123B800B5CC81082704817F2605BDB88920D481042606BDB8F57EB7E3C62081022712C637
S123B820108116270CC64081142706C60881072608FAB5CBCA01F7B5CBFEB5C68CB5C3267F
S123B8400536BDB88932FEB5C6A70008FFB5C636BDB8FA32810D272A811A2605BDB8F820CE
S123B86027368407C6014D2704584A20F932474747B7B878CEB5CFA600D700940026037EEA
S123B880B7E3B6B989B7B5DF39FEB5C68CB4CA271909FFB5C67DB5C92710A60081202405A6
S123B8A08608BDB6278608BDB62739FECE07EE06FFB4C4FECE07EE04FFB4C6398601B7B850
S123B8C0DEB7B5CD20067FB8DE7FB5CABDB8ABFEB4C4271EFEB4C6A60008FFB4C6C60027AD
S123B8E005BDB9002003BDB943FEB4C409FFB4C426E27EB4B6BDB8FA860D7DB5C9260939A2
S123B900810C273E8107273A847F810D2607BDB943860A202A810926197DB5CD2718F6B545
S123B920CAC40786081016378620BDB943335A26F6398120240936865EBDB943328B40BDE7
S123B940B94339810D270E8108270F810A27037CB5CA7EB6277FB5CA20F57AB5CA20F350B2
S123B9604F52543A00010000B95FBF8FB96EB9AAB9B2BA17BAC3BA1EBACDB9AAB4B8B4B850
S123B980B98AB994B4B6B4B8FF00FECE07E603C11D7EB4B6FECE07E603C104260486022069
S123B9A0028600EE0AA7007EB4B68600B7B9887EB4B6B6B98826037EB4B68101260BBDB6E0
S123B9C01B86FFB7B9887EB4B68102260EBDB62386FFB7B9887EB4B67EB4B67EB4B8CE0091
S123B9E0320926FD39BDB9DEBDB64E81302406811A26F20D398030810A24020C3980078115
S123BA001024E20C39BDB9DEBDB64E81002706811A27020C390D398601B7BA6020037FBA01
S123BA2060BDB704CE0000BDB721B6B98826178601B7B9887FB5CEBDB617B6BA60260E86FE
S123BA4081BDB6272007810127037EB4B8CE0000FFB4C8FEB4C426037EB4B609FFB4C48634
S123BA6000272FBDBA052556810D2607C601F7B5CE2012810A26097DB5CE26E7860D2005C8
S123BA807FB5CE20247DB4C3271F7FB4C47FB4C52017BDB9E5252748484848B7B989BDB9C6
S123BAA0E5251BBBB989B7B989FEB4C6A70008FFB4C6FEB4C808FFB4C8BDB7212095BDCEF5
S123BAC02D03E98601B7BA60B7B5CD20037FBA60BDB8ABB6B98826258602B7B988BDB61F88
S123BAE08682F6BA6026118683BDB6278620BDB6278620BDB6278620BDB6272007810227BF
S123BB00037EB4B8FEB4C426037EB4B609FFB4C4FEB4C6A60008FFB4C6F6BA602705BDB9DC
S123BB200020E1B7B98944444444BDBB37B6B989840FBDBB3720CD8B30813A25028B077E74
S11ABB40B62744303A00010000BB42BB8EBC62008000120002002343
S112BB76000000000000000000000000000000BC
S119BB890044313A00010000BB8ABBD6BC62008000120002002347
S112BBBE00000000000000000000000000000074
S119BBD10144323A00010000BBD2BC1EBC6200800012000200236C
S112BC060000000000000000000000000000002B
S119BC190244333A00010000BC1ABE76BC6200800012000200237E
S112BC4E000000000000000000000000000000E3
S123BC6103BD5ABD18BD25BD5AB4B8BC74B4B8B4B8B4B8811127037EB4B85F39FEBD5C6F33
S123BC810E6F106F116F12A603E60401BDBC994CA70F54E71369113958498BEE250280EEB9
S123BCA159498BEE250280EE59498BEE250280EE59498BEE250280EE59498BEE250280EEBF
S123BCC159498BEE250280EE59498BEE250280EE59498BEE250280EE59396C3E26066C3D3E
S123BCE126026C3C39DE06BDBCDBA643B7BD5E6F016F02EE2BFFBD5CBDBC7DA605E606B7ED
S123BD01BD62F7BD63A613B7BD5FA60FB7BD60A611B7BD616F0C39BDBCE6BDBD7D2612FE07
S123BD21BD620C39BDBCE6BDBD8C2605FEBD620C39CE041785102611CE04168520260ACE68
S11EBD41041885402603CE0415DF009600D601DE06A701E702DE000D395F3975
S104BD64FFDB
S123BD6B7FBD6486FFB7BD65B7BD66B7BD67B7BD6839BDBE49BDBD9B27157ABD6926F620FB
S123BD8B0DBDBE49BDBDD127067ABD6926F64D39BDBE00868CBBBD6AB7FF18BDBE29FEBD6D
S123BDAB62C680B6FF1885022606850126F5200BB6FF1BA700085A26EA8D03841C39B6FF79
S123BDCB18850126F939BDBE0086ACBBBD6AB7FF18BDBE29FEBD62C680B6FF18850226067A
S123BDEB850126F520A8A600B7FF1B085A26EABDBDC9847C39B1FF192713B7FF1BBDBE29EE
S123BE0BA700861BB7FF18BDBE29BDBDC9F7FF1ABDBE29B6BD6127028608B7BD6A39BDBE45
S123BE2B2CBDBE2F39CEBD65B6BD642704084A26FC39860BB7FF18BDBE29BDBDC9398DE554
S123BE4BB6FF19A700B6BD5EB7BD64B7FF148DD5A600B7FF1981FF26028DD78605B7BD69A0
S11FBE6BB6BD5FF6BD603948443A00010000BE720000BEBA0080004000040099CD
S112BEA600000000000000000000000000000089
S123BEB900BD5ABF5ABF74BD5AB4B8BC74B4B8B4B8B4B88655B7FF118601B7FF10B6FF1156
S123BED981672705CE04240D39DE06BDBCDBA643C602F7FF10B7FF116F016F02EE2BFFBD89
S123BEF95CFEBD5C6F0E6F106F12A603E60437C43FE70FF7FF11C603F7FF10334456445635
S123BF19445644564456445637C403E711F7FF11C604F7FF103344564456E713F7FF11C6A1
S123BF3905F7FF10A605B7BD62B7FF118606B7FF10E606F7BD63F7FF11C607F7FF106F0CE7
S123BF5939BDBECC250D8608B7FF10B6FF112706CE04157EBD4AFEBD620C39BDBECC25F39E
S123BF798609B7FF10B6FF1127ECCE041620E4434C4F434B3A00010000BF880000BF98BF86
S123BF99B2BFB2BFF2B4B8BFD0BFCDB4B8B4B8B4B8B4B8BFB8BFCDBFB27EB4B67EB4B881B2
S123BFB90426F9FECE07BDCE360001EE0A860BA7007EB4B67EB4B6BDCE360006CECE00C683
S123BFD906A60B08365A26F9FECE07EE0AC60632A705095A26F97EB4B6BDCE360011FECE59
S123BFF907A60C2606E60DC11225026C09EE0A2504860DA7118611DF00CEC029E60008DF77
S123C01902DE00E70008DF00DE024A26EF7EB4B630303A30303A30302030382F31362F3815
S107C039327EB4B6E5
S9
