S114AE0011000070030000000000000000001008821F
S10520270101B1
S10523E90101EC
S10520310101A7
S104217A3927
S10AB00F3431393B3B3B3BAC
S105B4088601B7
S109DD8201010101010191
S105B844FFF00F
S104B8374FBD
S105C6F1010141
S105213801019F
S113273644454641554C5450524F4752414D202032
S10620007E30002B
S1233000CEA0846F00088CA5FC26F886A3C676A700E701CB22890008088CA62226F17FA0F4
S10A302083FEAE037E2003D2
S107A0807E73D8000F
S105A6620000F2
S12370007E700076F47093A5FC13A663079B7BE87BE8700070277E703A7E703C7E703FA6C0
S1237020627040705C7050CE703EFFA000BD7919CE70CAFF71C4FF71C6390F390E39013BCE
S12370404F462400FE704E08FF704E7EAE1500000000000070587093017EAE1500007078BC
S111706000000000000000000000000070931B
S123707800000000000070820000CE7081BDAE2A20F8434F4E534F4C453A00010000708A4E
S12370987513709C720F7233730D748672EB7490720F70B870B872677236727C70B80C3992
S10E70B8BDAE2D040ABDAE307EAE3329
S12371E0810D270E81082712853C27037C71CA7EE1D17F71CA7A71CA20F5BDE1D18620BDDE
S1237200E1D17A71CA86087EE1D101BDE1AC397F71C88601B771C986FFB7A00C7F71CACE21
S123722071CF86106F00084A26FA7F71CC7F71CB7E70B67E70B6FEAE078600E603C12C269F
S12372400BB671CBBAA0837F71CB2014C1012605B671CA200BC1022605B671C820028600D3
S1237260EE0AA7007E70B6FEAE07E603C11D271DC110270BC111270FC11427217E70B686B7
S123728001B771C97E70B67F71C97E70B6FE71C4BC71C62705BDAE2D07757E70B6BD747547
S12372A0CE71CFFF7910C610FE70C6A60008FF70C6FE7910A70008FF79105A26EB7E70B67A
S12372C0FEAE07A603B770C3EE0CFF70C4FEAE076F086F09FEAE07EE0AFF70C639DF009607
S12372E000D601FEAE07A708E70939BD72C0FE70C4BD72DDFE70C4271209FF70C4BD720A1B
S1237300FE70C6A70008FF70C620E90C39BD72C0B670C32608FE70C427037E70B8FE70C4C9
S12373202605BDAE2D0773FE71C4BC71C62603BD738DCE0000FF70C8FE71C4BC71C627436B
S1237340FE71C4A60008FF71C4811A2736FE70C6A70008FF70C6810D26057F71CA20037CF2
S123736071CAFE70C808FF70C836BD72DD32B171DF26037E70B6FE70C8BC70C426BABDAEA6
S12373802D07738601B771C8BDAE2D03E97F71CC7F71DF7F71CDCE70CAFF71C4FF71C6BDD0
S12373A0720AB7753781032612BD74BF7C71CCB671CC810226E0BDAE2D04117F71CC810817
S12373C02704817F2605BD745320D481042614BD74BFBF73D97EE0D08EA07F86FFB7A00C5E
S12373E07E739FC62081022712C6108116270CC64081142706C60881072608FA71CBCA016A
S1237400F771CBFE71C68C71C3260536BD745332FE71C6A70008FF71C636BD74C432810D24
S1237420272A811A2605BD74C22027368407C6014D2704584A20F932474747B77442CE7189
S1237440CFA600D700940026037E739FB67537B771DF39FE71C68C70CA271909FF71C67DF6
S123746071C92710A600812024058608BD71E08608BD71E039FEAE07EE06FF70C4FEAE0729
S1237480EE04FF70C6398601B774A8B771CD20067F74A87F71CABD7475FE70C4271EFE7033
S12374A0C6A60008FF70C6C6002705BD74CA2003BD71E0FE70C409FF70C426E27E70B6BD2A
S12374C074C4860D7D71C9260939810C273E8107273A847F810D2607BD71E0860A202A81BC
S12374E00926197D71CD2718F671CAC40786081016378620BD71E0335A26F63981202409FB
S123750036865EBD71E0328B40BD71E039504F52543A00010000750D7B3D751C755875600E
S123752075C5767175CC767B755870B870B87538754270B670B8FF00FEAE07E603C11D7E2E
S123754070B6FEAE07E603C1042604860220028600EE0AA7007E70B68600B775367E70B677
S1237560B6753626037E70B68101260BBDE34786FFB775367E70B68102260EBDE35386FF85
S1237580B775367E70B67E70B67E70B8CE00320926FD39BD758CBD720A81302406811A269F
S12375A0F20D398030810A24020C398007811024E20C39BD758CBD720A81002706811A271F
S12375C0020C390D398601B7760E20037F760EBD72C0CE0000BD72DDB6753626178601B78D
S12375E075367F71CEBDE337B6760E260E8681BD71E02007810127037E70B8CE0000FF700E
S1237600C8FE70C426037E70B609FF70C48600272FBD75B32556810D2607C601F771CE204F
S123762012810A26097D71CE26E7860D20057F71CE20247D70C3271F7F70C47F70C5201763
S1237640BD7593252748484848B77537BD7593251BBB7537B77537FE70C6A70008FF70C6AB
S1237660FE70C808FF70C8BD72DD2095BDAE2D03E98601B7760EB771CD20037F760EBD743E
S123768075B6753626258602B77536BDE34D8682F6760E26118683BD71E08620BD71E086E4
S12376A020BD71E08620BD71E02007810227037E70B8FE70C426037E70B609FF70C4FE70C1
S12376C0C6A60008FF70C6F6760E2705BD74CA20E1B7753744444444BD76E5B67537840FDB
S12376E0BD76E520CD8B30813A25028B077E71E044303A0001000076F0773C7810008000B3
S1087700120002002349
S112772400000000000000000000000000000052
S11977370044313A0001000077387784781000800012000200239F
S112776C0000000000000000000000000000000A
S119777F0144323A00010000778077CC78100080001200020023C5
S11277B4000000000000000000000000000000C2
S11977C70244333A0001000077C87A2478100080001200020023D8
S11277FC0000000000000000000000000000007A
S123780F03790878C678D3790870B8782270B870B870B8811127037E70B85F39FE790A6FA3
S123782F0E6F106F116F12A603E60401BD78474CA70F54E71369113958498BEE250280EEE5
S123784F59498BEE250280EE59498BEE250280EE59498BEE250280EE59498BEE250280EE55
S123786F59498BEE250280EE59498BEE250280EE59498BEE250280EE59396C3E26066C3DD4
S123788F26026C3C39DE06BD7889A643B7790C6F016F02EE2BFF790ABD782BA605E606B7DB
S12378AF7910F77911A613B7790DA60FB7790EA611B7790F6F0C39BD7894BD792B2612FEB8
S12378CF79100C39BD7894BD793A2605FE79100C39CE041785102611CE04168520260ACE57
S11E78EF041885402603CE0415DF009600D601DE06A701E702DE000D395F390C
S1047912FF71
S12379197F791286FFB77913B77914B77915B7791639BD79F7BD794927157A791726F62042
S12379390DBD79F7BD797F27067A791726F64D39BD79AE868CBB7918B78018BD79D7FE794D
S123795910C680B6801885022606850126F5200BB6801BA700085A26EA8D03841C39B680DE
S123797918850126F939BD79AE86ACBB7918B78018BD79D7FE7910C680B680188502260668
S1237999850126F520A8A600B7801B085A26EABD7977847C39B180192713B7801BBD79D72E
S12379B9A700861BB78018BD79D7BD7977F7801ABD79D7B6790F27028608B7791839BD790F
S12379D9DABD79DD39CE7913B679122704084A26FC39860BB78018BD79D7BD7977398DE5AC
S12379F9B68019A700B6790CB77912B780148DD5A600B7801981FF26028DD78605B7791776
S11F7A19B6790DF6790E3948443A000100007A2000007A680080004000040099BB
S1127A540000000000000000000000000000001F
S1237A670079087B087B22790870B8782270B870B870B88655B780118601B78010B6801167
S1237A8781672705CE04240D39DE06BD7889A643C602F78010B780116F016F02EE2BFF79F7
S1237AA70AFE790A6F0E6F106F12A603E60437C43FE70FF78011C603F780103344564456B1
S1237AC7445644564456445637C403E711F78011C604F780103344564456E713F78011C6B5
S1237AE705F78010A605B77910B780118606B78010E606F77911F78011C607F780106F0C25
S1237B0739BD7A7A250D8608B78010B680112706CE04157E78F8FE79100C39BD7A7A25F38B
S1237B278609B78010B6801127ECCE041620E4434C4F434B3A000100007B3600007B467B8A
S1237B47607B607BA070B87B7E7B7B70B870B870B870B87B667B7B7B607E70B67E70B88190
S1237B670426F9FEAE07BDAE360001EE0A860BA7007E70B67E70B6BDAE360006CEAE00C621
S1237B8706A60B08365A26F9FEAE07EE0AC60632A705095A26F97E70B6BDAE360011FEAE93
S1237BA707A60C2606E60DC11225026C09EE0A2504860DA7118611DF00CE7BD7E60008DFA4
S1237BC702DE00E70008DF00DE024A26EF7E70B630303A30303A30302030382F31362F38F0
S1077BE7327E70B6C0
S9
